{
  "address": "0x670F8689A8e0D918Cd1Cc014AaeFd66E94AE8259",
  "abi": [
    {
      "inputs": [],
      "name": "FloorAboveCeiling",
      "type": "error"
    },
    {
      "inputs": [],
      "name": "InsufficientVaultStake",
      "type": "error"
    },
    {
      "inputs": [
        {
          "internalType": "address",
          "name": "addr",
          "type": "address"
        }
      ],
      "name": "InvalidAddress",
      "type": "error"
    },
    {
      "inputs": [],
      "name": "InvalidDuration",
      "type": "error"
    },
    {
      "inputs": [],
      "name": "InvalidVault",
      "type": "error"
    },
    {
      "inputs": [],
      "name": "MaxBonusTokensReached",
      "type": "error"
    },
    {
      "inputs": [],
      "name": "MaxStakesReached",
      "type": "error"
    },
    {
      "inputs": [],
      "name": "NoAmountStaked",
      "type": "error"
    },
    {
      "inputs": [],
      "name": "NoAmountUnstaked",
      "type": "error"
    },
    {
      "inputs": [],
      "name": "NoStakes",
      "type": "error"
    },
    {
      "inputs": [],
      "name": "Powered_IsShutdown",
      "type": "error"
    },
    {
      "inputs": [],
      "name": "Powered_NotOffline",
      "type": "error"
    },
    {
      "inputs": [],
      "name": "Powered_NotOnline",
      "type": "error"
    },
    {
      "inputs": [],
      "name": "Powered_NotShutdown",
      "type": "error"
    },
    {
      "inputs": [],
      "name": "Powered_NotStarted",
      "type": "error"
    },
    {
      "inputs": [],
      "name": "ScalingTimeIsZero",
      "type": "error"
    },
    {
      "inputs": [],
      "name": "VaultAlreadyRegistered",
      "type": "error"
    },
    {
      "inputs": [],
      "name": "VaultFactoryNotRegistered",
      "type": "error"
    },
    {
      "anonymous": false,
      "inputs": [
        {
          "indexed": false,
          "internalType": "address",
          "name": "rewardPool",
          "type": "address"
        },
        {
          "indexed": false,
          "internalType": "address",
          "name": "powerSwitch",
          "type": "address"
        }
      ],
      "name": "AludelCreated",
      "type": "event"
    },
    {
      "anonymous": false,
      "inputs": [
        {
          "indexed": false,
          "internalType": "uint256",
          "name": "amount",
          "type": "uint256"
        },
        {
          "indexed": false,
          "internalType": "uint256",
          "name": "duration",
          "type": "uint256"
        }
      ],
      "name": "AludelFunded",
      "type": "event"
    },
    {
      "anonymous": false,
      "inputs": [
        {
          "indexed": false,
          "internalType": "address",
          "name": "token",
          "type": "address"
        }
      ],
      "name": "BonusTokenRegistered",
      "type": "event"
    },
    {
      "anonymous": false,
      "inputs": [
        {
          "indexed": false,
          "internalType": "uint8",
          "name": "version",
          "type": "uint8"
        }
      ],
      "name": "Initialized",
      "type": "event"
    },
    {
      "anonymous": false,
      "inputs": [
        {
          "indexed": true,
          "internalType": "address",
          "name": "previousOwner",
          "type": "address"
        },
        {
          "indexed": true,
          "internalType": "address",
          "name": "newOwner",
          "type": "address"
        }
      ],
      "name": "OwnershipTransferred",
      "type": "event"
    },
    {
      "anonymous": false,
      "inputs": [
        {
          "indexed": false,
          "internalType": "address",
          "name": "vault",
          "type": "address"
        },
        {
          "indexed": false,
          "internalType": "address",
          "name": "token",
          "type": "address"
        },
        {
          "indexed": false,
          "internalType": "uint256",
          "name": "amount",
          "type": "uint256"
        }
      ],
      "name": "RewardClaimed",
      "type": "event"
    },
    {
      "anonymous": false,
      "inputs": [
        {
          "indexed": false,
          "internalType": "address",
          "name": "vault",
          "type": "address"
        },
        {
          "indexed": false,
          "internalType": "uint256",
          "name": "amount",
          "type": "uint256"
        }
      ],
      "name": "Staked",
      "type": "event"
    },
    {
      "anonymous": false,
      "inputs": [
        {
          "indexed": false,
          "internalType": "address",
          "name": "vault",
          "type": "address"
        },
        {
          "indexed": false,
          "internalType": "uint256",
          "name": "amount",
          "type": "uint256"
        }
      ],
      "name": "Unstaked",
      "type": "event"
    },
    {
      "anonymous": false,
      "inputs": [
        {
          "indexed": false,
          "internalType": "address",
          "name": "factory",
          "type": "address"
        }
      ],
      "name": "VaultFactoryRegistered",
      "type": "event"
    },
    {
      "anonymous": false,
      "inputs": [
        {
          "indexed": false,
          "internalType": "address",
          "name": "factory",
          "type": "address"
        }
      ],
      "name": "VaultFactoryRemoved",
      "type": "event"
    },
    {
      "inputs": [],
      "name": "BASE_SHARES_PER_WEI",
      "outputs": [
        {
          "internalType": "uint256",
          "name": "",
          "type": "uint256"
        }
      ],
      "stateMutability": "view",
      "type": "function"
    },
    {
      "inputs": [],
      "name": "MAX_REWARD_TOKENS",
      "outputs": [
        {
          "internalType": "uint256",
          "name": "",
          "type": "uint256"
        }
      ],
      "stateMutability": "view",
      "type": "function"
    },
    {
      "inputs": [],
      "name": "MAX_STAKES_PER_VAULT",
      "outputs": [
        {
          "internalType": "uint256",
          "name": "",
          "type": "uint256"
        }
      ],
      "stateMutability": "view",
      "type": "function"
    },
    {
      "inputs": [
        {
          "internalType": "uint256",
          "name": "unlockedRewards",
          "type": "uint256"
        },
        {
          "internalType": "uint256",
          "name": "stakeAmount",
          "type": "uint256"
        },
        {
          "internalType": "uint256",
          "name": "stakeDuration",
          "type": "uint256"
        },
        {
          "internalType": "uint256",
          "name": "totalStakeUnits",
          "type": "uint256"
        },
        {
          "components": [
            {
              "internalType": "uint256",
              "name": "floor",
              "type": "uint256"
            },
            {
              "internalType": "uint256",
              "name": "ceiling",
              "type": "uint256"
            },
            {
              "internalType": "uint256",
              "name": "time",
              "type": "uint256"
            }
          ],
          "internalType": "struct IAludel.RewardScaling",
          "name": "rewardScaling",
          "type": "tuple"
        }
      ],
      "name": "calculateReward",
      "outputs": [
        {
          "internalType": "uint256",
          "name": "reward",
          "type": "uint256"
        }
      ],
      "stateMutability": "pure",
      "type": "function"
    },
    {
      "inputs": [
        {
          "components": [
            {
              "internalType": "uint256",
              "name": "amount",
              "type": "uint256"
            },
            {
              "internalType": "uint256",
              "name": "timestamp",
              "type": "uint256"
            }
          ],
          "internalType": "struct IAludel.StakeData[]",
          "name": "stakes",
          "type": "tuple[]"
        },
        {
          "internalType": "uint256",
          "name": "unstakeAmount",
          "type": "uint256"
        },
        {
          "internalType": "uint256",
          "name": "unlockedRewards",
          "type": "uint256"
        },
        {
          "internalType": "uint256",
          "name": "totalStakeUnits",
          "type": "uint256"
        },
        {
          "internalType": "uint256",
          "name": "timestamp",
          "type": "uint256"
        },
        {
          "components": [
            {
              "internalType": "uint256",
              "name": "floor",
              "type": "uint256"
            },
            {
              "internalType": "uint256",
              "name": "ceiling",
              "type": "uint256"
            },
            {
              "internalType": "uint256",
              "name": "time",
              "type": "uint256"
            }
          ],
          "internalType": "struct IAludel.RewardScaling",
          "name": "rewardScaling",
          "type": "tuple"
        }
      ],
      "name": "calculateRewardFromStakes",
      "outputs": [
        {
          "components": [
            {
              "internalType": "uint256",
              "name": "lastStakeAmount",
              "type": "uint256"
            },
            {
              "internalType": "uint256",
              "name": "newStakesCount",
              "type": "uint256"
            },
            {
              "internalType": "uint256",
              "name": "reward",
              "type": "uint256"
            },
            {
              "internalType": "uint256",
              "name": "newTotalStakeUnits",
              "type": "uint256"
            }
          ],
          "internalType": "struct IAludel.RewardOutput",
          "name": "out",
          "type": "tuple"
        }
      ],
      "stateMutability": "pure",
      "type": "function"
    },
    {
      "inputs": [
        {
          "internalType": "uint256",
          "name": "amount",
          "type": "uint256"
        },
        {
          "internalType": "uint256",
          "name": "start",
          "type": "uint256"
        },
        {
          "internalType": "uint256",
          "name": "end",
          "type": "uint256"
        }
      ],
      "name": "calculateStakeUnits",
      "outputs": [
        {
          "internalType": "uint256",
          "name": "stakeUnits",
          "type": "uint256"
        }
      ],
      "stateMutability": "pure",
      "type": "function"
    },
    {
      "inputs": [
        {
          "components": [
            {
              "internalType": "uint256",
              "name": "amount",
              "type": "uint256"
            },
            {
              "internalType": "uint256",
              "name": "timestamp",
              "type": "uint256"
            }
          ],
          "internalType": "struct IAludel.StakeData[]",
          "name": "stakes",
          "type": "tuple[]"
        },
        {
          "internalType": "uint256",
          "name": "timestamp",
          "type": "uint256"
        }
      ],
      "name": "calculateTotalStakeUnits",
      "outputs": [
        {
          "internalType": "uint256",
          "name": "totalStakeUnits",
          "type": "uint256"
        }
      ],
      "stateMutability": "pure",
      "type": "function"
    },
    {
      "inputs": [
        {
          "components": [
            {
              "internalType": "uint256",
              "name": "duration",
              "type": "uint256"
            },
            {
              "internalType": "uint256",
              "name": "start",
              "type": "uint256"
            },
            {
              "internalType": "uint256",
              "name": "shares",
              "type": "uint256"
            }
          ],
          "internalType": "struct IAludel.RewardSchedule[]",
          "name": "rewardSchedules",
          "type": "tuple[]"
        },
        {
          "internalType": "uint256",
          "name": "rewardBalance",
          "type": "uint256"
        },
        {
          "internalType": "uint256",
          "name": "sharesOutstanding",
          "type": "uint256"
        },
        {
          "internalType": "uint256",
          "name": "timestamp",
          "type": "uint256"
        }
      ],
      "name": "calculateUnlockedRewards",
      "outputs": [
        {
          "internalType": "uint256",
          "name": "unlockedRewards",
          "type": "uint256"
        }
      ],
      "stateMutability": "pure",
      "type": "function"
    },
    {
      "inputs": [
        {
          "internalType": "uint256",
          "name": "amount",
          "type": "uint256"
        },
        {
          "internalType": "uint256",
          "name": "duration",
          "type": "uint256"
        }
      ],
      "name": "fund",
      "outputs": [],
      "stateMutability": "nonpayable",
      "type": "function"
    },
    {
      "inputs": [],
      "name": "getAludelData",
      "outputs": [
        {
          "components": [
            {
              "internalType": "address",
              "name": "stakingToken",
              "type": "address"
            },
            {
              "internalType": "address",
              "name": "rewardToken",
              "type": "address"
            },
            {
              "internalType": "address",
              "name": "rewardPool",
              "type": "address"
            },
            {
              "components": [
                {
                  "internalType": "uint256",
                  "name": "floor",
                  "type": "uint256"
                },
                {
                  "internalType": "uint256",
                  "name": "ceiling",
                  "type": "uint256"
                },
                {
                  "internalType": "uint256",
                  "name": "time",
                  "type": "uint256"
                }
              ],
              "internalType": "struct IAludel.RewardScaling",
              "name": "rewardScaling",
              "type": "tuple"
            },
            {
              "internalType": "uint256",
              "name": "rewardSharesOutstanding",
              "type": "uint256"
            },
            {
              "internalType": "uint256",
              "name": "totalStake",
              "type": "uint256"
            },
            {
              "internalType": "uint256",
              "name": "totalStakeUnits",
              "type": "uint256"
            },
            {
              "internalType": "uint256",
              "name": "lastUpdate",
              "type": "uint256"
            },
            {
              "components": [
                {
                  "internalType": "uint256",
                  "name": "duration",
                  "type": "uint256"
                },
                {
                  "internalType": "uint256",
                  "name": "start",
                  "type": "uint256"
                },
                {
                  "internalType": "uint256",
                  "name": "shares",
                  "type": "uint256"
                }
              ],
              "internalType": "struct IAludel.RewardSchedule[]",
              "name": "rewardSchedules",
              "type": "tuple[]"
            }
          ],
          "internalType": "struct IAludel.AludelData",
          "name": "aludel",
          "type": "tuple"
        }
      ],
      "stateMutability": "view",
      "type": "function"
    },
    {
      "inputs": [
        {
          "internalType": "uint256",
          "name": "index",
          "type": "uint256"
        }
      ],
      "name": "getBonusTokenAtIndex",
      "outputs": [
        {
          "internalType": "address",
          "name": "bonusToken",
          "type": "address"
        }
      ],
      "stateMutability": "view",
      "type": "function"
    },
    {
      "inputs": [],
      "name": "getBonusTokenSetLength",
      "outputs": [
        {
          "internalType": "uint256",
          "name": "length",
          "type": "uint256"
        }
      ],
      "stateMutability": "view",
      "type": "function"
    },
    {
      "inputs": [
        {
          "internalType": "address",
          "name": "vault",
          "type": "address"
        },
        {
          "internalType": "uint256",
          "name": "stakeAmount",
          "type": "uint256"
        }
      ],
      "name": "getCurrentStakeReward",
      "outputs": [
        {
          "internalType": "uint256",
          "name": "reward",
          "type": "uint256"
        }
      ],
      "stateMutability": "view",
      "type": "function"
    },
    {
      "inputs": [],
      "name": "getCurrentTotalStakeUnits",
      "outputs": [
        {
          "internalType": "uint256",
          "name": "totalStakeUnits",
          "type": "uint256"
        }
      ],
      "stateMutability": "view",
      "type": "function"
    },
    {
      "inputs": [],
      "name": "getCurrentUnlockedRewards",
      "outputs": [
        {
          "internalType": "uint256",
          "name": "unlockedRewards",
          "type": "uint256"
        }
      ],
      "stateMutability": "view",
      "type": "function"
    },
    {
      "inputs": [
        {
          "internalType": "address",
          "name": "vault",
          "type": "address"
        }
      ],
      "name": "getCurrentVaultReward",
      "outputs": [
        {
          "internalType": "uint256",
          "name": "reward",
          "type": "uint256"
        }
      ],
      "stateMutability": "view",
      "type": "function"
    },
    {
      "inputs": [
        {
          "internalType": "address",
          "name": "vault",
          "type": "address"
        }
      ],
      "name": "getCurrentVaultStakeUnits",
      "outputs": [
        {
          "internalType": "uint256",
          "name": "stakeUnits",
          "type": "uint256"
        }
      ],
      "stateMutability": "view",
      "type": "function"
    },
    {
      "inputs": [
        {
          "internalType": "address",
          "name": "vault",
          "type": "address"
        },
        {
          "internalType": "uint256",
          "name": "stakeAmount",
          "type": "uint256"
        },
        {
          "internalType": "uint256",
          "name": "timestamp",
          "type": "uint256"
        }
      ],
      "name": "getFutureStakeReward",
      "outputs": [
        {
          "internalType": "uint256",
          "name": "reward",
          "type": "uint256"
        }
      ],
      "stateMutability": "view",
      "type": "function"
    },
    {
      "inputs": [
        {
          "internalType": "uint256",
          "name": "timestamp",
          "type": "uint256"
        }
      ],
      "name": "getFutureTotalStakeUnits",
      "outputs": [
        {
          "internalType": "uint256",
          "name": "totalStakeUnits",
          "type": "uint256"
        }
      ],
      "stateMutability": "view",
      "type": "function"
    },
    {
      "inputs": [
        {
          "internalType": "uint256",
          "name": "timestamp",
          "type": "uint256"
        }
      ],
      "name": "getFutureUnlockedRewards",
      "outputs": [
        {
          "internalType": "uint256",
          "name": "unlockedRewards",
          "type": "uint256"
        }
      ],
      "stateMutability": "view",
      "type": "function"
    },
    {
      "inputs": [
        {
          "internalType": "address",
          "name": "vault",
          "type": "address"
        },
        {
          "internalType": "uint256",
          "name": "timestamp",
          "type": "uint256"
        }
      ],
      "name": "getFutureVaultReward",
      "outputs": [
        {
          "internalType": "uint256",
          "name": "reward",
          "type": "uint256"
        }
      ],
      "stateMutability": "view",
      "type": "function"
    },
    {
      "inputs": [
        {
          "internalType": "address",
          "name": "vault",
          "type": "address"
        },
        {
          "internalType": "uint256",
          "name": "timestamp",
          "type": "uint256"
        }
      ],
      "name": "getFutureVaultStakeUnits",
      "outputs": [
        {
          "internalType": "uint256",
          "name": "stakeUnits",
          "type": "uint256"
        }
      ],
      "stateMutability": "view",
      "type": "function"
    },
    {
      "inputs": [],
      "name": "getPowerController",
      "outputs": [
        {
          "internalType": "address",
          "name": "controller",
          "type": "address"
        }
      ],
      "stateMutability": "view",
      "type": "function"
    },
    {
      "inputs": [],
      "name": "getPowerSwitch",
      "outputs": [
        {
          "internalType": "address",
          "name": "powerSwitch",
          "type": "address"
        }
      ],
      "stateMutability": "view",
      "type": "function"
    },
    {
      "inputs": [
        {
          "internalType": "address",
          "name": "vault",
          "type": "address"
        }
      ],
      "name": "getVaultData",
      "outputs": [
        {
          "components": [
            {
              "internalType": "uint256",
              "name": "totalStake",
              "type": "uint256"
            },
            {
              "components": [
                {
                  "internalType": "uint256",
                  "name": "amount",
                  "type": "uint256"
                },
                {
                  "internalType": "uint256",
                  "name": "timestamp",
                  "type": "uint256"
                }
              ],
              "internalType": "struct IAludel.StakeData[]",
              "name": "stakes",
              "type": "tuple[]"
            }
          ],
          "internalType": "struct IAludel.VaultData",
          "name": "vaultData",
          "type": "tuple"
        }
      ],
      "stateMutability": "view",
      "type": "function"
    },
    {
      "inputs": [
        {
          "internalType": "uint256",
          "name": "index",
          "type": "uint256"
        }
      ],
      "name": "getVaultFactoryAtIndex",
      "outputs": [
        {
          "internalType": "address",
          "name": "factory",
          "type": "address"
        }
      ],
      "stateMutability": "view",
      "type": "function"
    },
    {
      "inputs": [],
      "name": "getVaultFactorySetLength",
      "outputs": [
        {
          "internalType": "uint256",
          "name": "length",
          "type": "uint256"
        }
      ],
      "stateMutability": "view",
      "type": "function"
    },
    {
      "inputs": [
        {
          "internalType": "uint64",
          "name": "startTime",
          "type": "uint64"
        },
        {
          "internalType": "address",
          "name": "ownerAddress",
          "type": "address"
        },
        {
          "internalType": "address",
          "name": "feeRecipient",
          "type": "address"
        },
        {
          "internalType": "uint16",
          "name": "feeBps",
          "type": "uint16"
        },
        {
          "internalType": "bytes",
          "name": "data",
          "type": "bytes"
        }
      ],
      "name": "initialize",
      "outputs": [],
      "stateMutability": "nonpayable",
      "type": "function"
    },
    {
      "inputs": [],
      "name": "initializeLock",
      "outputs": [],
      "stateMutability": "nonpayable",
      "type": "function"
    },
    {
      "inputs": [],
      "name": "isOffline",
      "outputs": [
        {
          "internalType": "bool",
          "name": "status",
          "type": "bool"
        }
      ],
      "stateMutability": "view",
      "type": "function"
    },
    {
      "inputs": [],
      "name": "isOnline",
      "outputs": [
        {
          "internalType": "bool",
          "name": "status",
          "type": "bool"
        }
      ],
      "stateMutability": "view",
      "type": "function"
    },
    {
      "inputs": [],
      "name": "isShutdown",
      "outputs": [
        {
          "internalType": "bool",
          "name": "status",
          "type": "bool"
        }
      ],
      "stateMutability": "view",
      "type": "function"
    },
    {
      "inputs": [],
      "name": "isStarted",
      "outputs": [
        {
          "internalType": "bool",
          "name": "status",
          "type": "bool"
        }
      ],
      "stateMutability": "view",
      "type": "function"
    },
    {
      "inputs": [
        {
          "internalType": "address",
          "name": "target",
          "type": "address"
        }
      ],
      "name": "isValidAddress",
      "outputs": [
        {
          "internalType": "bool",
          "name": "validity",
          "type": "bool"
        }
      ],
      "stateMutability": "view",
      "type": "function"
    },
    {
      "inputs": [
        {
          "internalType": "address",
          "name": "target",
          "type": "address"
        }
      ],
      "name": "isValidVault",
      "outputs": [
        {
          "internalType": "bool",
          "name": "validity",
          "type": "bool"
        }
      ],
      "stateMutability": "view",
      "type": "function"
    },
    {
      "inputs": [],
      "name": "owner",
      "outputs": [
        {
          "internalType": "address",
          "name": "",
          "type": "address"
        }
      ],
      "stateMutability": "view",
      "type": "function"
    },
    {
      "inputs": [],
      "name": "rageQuit",
      "outputs": [],
      "stateMutability": "nonpayable",
      "type": "function"
    },
    {
      "inputs": [
        {
          "internalType": "address",
          "name": "bonusToken",
          "type": "address"
        }
      ],
      "name": "registerBonusToken",
      "outputs": [],
      "stateMutability": "nonpayable",
      "type": "function"
    },
    {
      "inputs": [
        {
          "internalType": "address",
          "name": "factory",
          "type": "address"
        }
      ],
      "name": "registerVaultFactory",
      "outputs": [],
      "stateMutability": "nonpayable",
      "type": "function"
    },
    {
      "inputs": [
        {
          "internalType": "address",
          "name": "factory",
          "type": "address"
        }
      ],
      "name": "removeVaultFactory",
      "outputs": [],
      "stateMutability": "nonpayable",
      "type": "function"
    },
    {
      "inputs": [],
      "name": "renounceOwnership",
      "outputs": [],
      "stateMutability": "nonpayable",
      "type": "function"
    },
    {
      "inputs": [
        {
          "internalType": "address",
          "name": "token",
          "type": "address"
        },
        {
          "internalType": "address",
          "name": "recipient",
          "type": "address"
        },
        {
          "internalType": "uint256",
          "name": "amount",
          "type": "uint256"
        }
      ],
      "name": "rescueTokensFromRewardPool",
      "outputs": [],
      "stateMutability": "nonpayable",
      "type": "function"
    },
    {
      "inputs": [
        {
          "internalType": "address",
          "name": "vault",
          "type": "address"
        },
        {
          "internalType": "uint256",
          "name": "amount",
          "type": "uint256"
        },
        {
          "internalType": "bytes",
          "name": "permission",
          "type": "bytes"
        }
      ],
      "name": "stake",
      "outputs": [],
      "stateMutability": "nonpayable",
      "type": "function"
    },
    {
      "inputs": [
        {
          "internalType": "address",
          "name": "newOwner",
          "type": "address"
        }
      ],
      "name": "transferOwnership",
      "outputs": [],
      "stateMutability": "nonpayable",
      "type": "function"
    },
    {
      "inputs": [
        {
          "internalType": "address",
          "name": "vault",
          "type": "address"
        },
        {
          "internalType": "uint256",
          "name": "amount",
          "type": "uint256"
        },
        {
          "internalType": "bytes",
          "name": "permission",
          "type": "bytes"
        }
      ],
      "name": "unstakeAndClaim",
      "outputs": [],
      "stateMutability": "nonpayable",
      "type": "function"
    }
  ],
  "transactionHash": "0x851ba52672f8655ec2e53afbf25a80823b50abffaeeb4c6b2b648539bc1d177e",
  "args": [],
  "numDeployments": 1,
  "solcInputHash": "dfe48c90b674f1a9e4bff3aae11b237a",
  "bytecode": "0x60806040523480156200001157600080fd5b5062000032620000266200003860201b60201c565b6200004060201b60201c565b62000104565b600033905090565b60008060009054906101000a900473ffffffffffffffffffffffffffffffffffffffff169050816000806101000a81548173ffffffffffffffffffffffffffffffffffffffff021916908373ffffffffffffffffffffffffffffffffffffffff1602179055508173ffffffffffffffffffffffffffffffffffffffff168173ffffffffffffffffffffffffffffffffffffffff167f8be0079c531659141344cd1fd0a4f28419497f9722a3daafe3b4186f6b6457e060405160405180910390a35050565b615aa280620001146000396000f3fe608060405234801561001057600080fd5b506004361061027d5760003560e01c8063785614351161015c578063a65e2cfd116100ce578063c85dd02511610087578063c85dd025146107fc578063ce1001291461081a578063e2bb9c0f14610838578063e2c0042314610856578063f2fde38b14610886578063f9039437146108a25761027d565b8063a65e2cfd14610728578063a9526fae14610744578063b0ccbf8c14610774578063b3173f9f1461077e578063bf86d690146107ae578063c7edd766146107cc5761027d565b80638531a636116101205780638531a636146106405780638539a69a1461065e5780638da5cb5b1461068e5780638e0ef636146106ac57806398322ab2146106c857806399493c51146106f85761027d565b80637856143514610576578063785b5479146105a65780637985cf56146105d65780637df98acf146106065780638382840c146106105761027d565b80634dd878d9116101f5578063643cd878116101b9578063643cd878146104d85780636471aadb146104f6578063664ab18e1461051257806371406a3214610530578063715018a61461054e578063766f13bc146105585761027d565b80634dd878d91461040c578063544736e61461043c57806356360f711461045a5780635d0cde971461048a57806364219450146104a85761027d565b80630b2c5c14116102475780630b2c5c14146103385780632857edd4146103565780632ee0b2bc146103865780633e12170f146103a257806342c026c7146103be578063438cae7e146103ee5761027d565b80623f07fa146102825780624414df146102b257806301210a18146102d05780630513247b146102ec5780630670fafd14610308575b600080fd5b61029c600480360381019061029791906146f1565b6108be565b6040516102a9919061525f565b60405180910390f35b6102ba610a63565b6040516102c79190615396565b60405180910390f35b6102ea60048036038101906102e59190614c1d565b610a73565b005b610306600480360381019061030191906146f1565b610eb5565b005b610322600480360381019061031d9190614852565b610fbd565b60405161032f9190615396565b60405180910390f35b6103406110c2565b60405161034d9190615396565b60405180910390f35b610370600480360381019061036b9190614928565b6110c9565b60405161037d9190615396565b60405180910390f35b6103a0600480360381019061039b91906146f1565b61113d565b005b6103bc60048036038101906103b791906147de565b611245565b005b6103d860048036038101906103d39190614ab5565b6114c9565b6040516103e59190615396565b60405180910390f35b6103f661151f565b604051610403919061525f565b60405180910390f35b61042660048036038101906104219190614ab5565b6115c6565b6040516104339190615152565b60405180910390f35b6104446115e3565b604051610451919061525f565b60405180910390f35b610474600480360381019061046f91906146f1565b6116b1565b6040516104819190615374565b60405180910390f35b610492611787565b60405161049f9190615396565b60405180910390f35b6104c260048036038101906104bd91906146f1565b61178c565b6040516104cf919061525f565b60405180910390f35b6104e061186e565b6040516104ed9190615396565b60405180910390f35b610510600480360381019061050b91906147de565b61187f565b005b61051a6120f0565b604051610527919061525f565b60405180910390f35b610538612197565b6040516105459190615396565b60405180910390f35b61055661219c565b005b610560612224565b60405161056d9190615152565b60405180910390f35b610590600480360381019061058b91906146f1565b6122cb565b60405161059d9190615396565b60405180910390f35b6105c060048036038101906105bb91906146f1565b6122de565b6040516105cd9190615396565b60405180910390f35b6105f060048036038101906105eb919061479e565b612421565b6040516105fd9190615396565b60405180910390f35b61060e612567565b005b61062a60048036038101906106259190614ba2565b6125f3565b6040516106379190615396565b60405180910390f35b610648612726565b6040516106559190615152565b60405180910390f35b61067860048036038101906106739190614b4f565b612750565b6040516106859190615396565b60405180910390f35b610696612785565b6040516106a39190615152565b60405180910390f35b6106c660048036038101906106c191906146f1565b6127ae565b005b6106e260048036038101906106dd919061479e565b6128d9565b6040516106ef9190615396565b60405180910390f35b610712600480360381019061070d9190614ab5565b6129db565b60405161071f9190615152565b60405180910390f35b610742600480360381019061073d9190614b0f565b6129f8565b005b61075e6004803603810190610759919061479e565b612dac565b60405161076b9190615396565b60405180910390f35b61077c612e6b565b005b610798600480360381019061079391906148a5565b61304e565b6040516107a59190615396565b60405180910390f35b6107b6613186565b6040516107c3919061525f565b60405180910390f35b6107e660048036038101906107e19190614984565b61322d565b6040516107f39190615359565b60405180910390f35b6108046133c8565b6040516108119190615337565b60405180910390f35b6108226135bc565b60405161082f9190615396565b60405180910390f35b6108406135cc565b60405161084d9190615396565b60405180910390f35b610870600480360381019061086b9190614ab5565b6135dd565b60405161087d9190615396565b60405180910390f35b6108a0600480360381019061089b91906146f1565b613745565b005b6108bc60048036038101906108b7919061474b565b61383d565b005b60003073ffffffffffffffffffffffffffffffffffffffff168273ffffffffffffffffffffffffffffffffffffffff16141580156109295750600073ffffffffffffffffffffffffffffffffffffffff168273ffffffffffffffffffffffffffffffffffffffff1614155b80156109865750600260000160009054906101000a900473ffffffffffffffffffffffffffffffffffffffff1673ffffffffffffffffffffffffffffffffffffffff168273ffffffffffffffffffffffffffffffffffffffff1614155b80156109e35750600260010160009054906101000a900473ffffffffffffffffffffffffffffffffffffffff1673ffffffffffffffffffffffffffffffffffffffff168273ffffffffffffffffffffffffffffffffffffffff1614155b8015610a3f57506002800160009054906101000a900473ffffffffffffffffffffffffffffffffffffffff1673ffffffffffffffffffffffffffffffffffffffff168273ffffffffffffffffffffffffffffffffffffffff1614155b8015610a5c5750610a5a82600e613a4e90919063ffffffff16565b155b9050919050565b6000610a6e426114c9565b905090565b6000610a7f6001613a7e565b90508015610aa3576001600060156101000a81548160ff0219169083151502179055505b60008383810190610ab49190614a88565b905085601260006101000a81548173ffffffffffffffffffffffffffffffffffffffff021916908373ffffffffffffffffffffffffffffffffffffffff16021790555084601260146101000a81548161ffff021916908361ffff1602179055508060800151602001518160800151600001511115610b5e576040517f18084af300000000000000000000000000000000000000000000000000000000815260040160405180910390fd5b60008160800151604001511415610ba1576040517f8c648c8500000000000000000000000000000000000000000000000000000000815260040160405180910390fd5b6000816020015173ffffffffffffffffffffffffffffffffffffffff1663cf5ba53f898b604051602001610bd6929190615236565b6040516020818303038152906040526040518263ffffffff1660e01b8152600401610c01919061527a565b602060405180830381600087803b158015610c1b57600080fd5b505af1158015610c2f573d6000803e3d6000fd5b505050506040513d601f19601f82011682018060405250810190610c53919061471e565b90506000826000015173ffffffffffffffffffffffffffffffffffffffff1663cf5ba53f83604051602001610c889190615152565b6040516020818303038152906040526040518263ffffffff1660e01b8152600401610cb3919061527a565b602060405180830381600087803b158015610ccd57600080fd5b505af1158015610ce1573d6000803e3d6000fd5b505050506040513d601f19601f82011682018060405250810190610d05919061471e565b9050610d1033613b71565b610d1982613c35565b8260400151600260000160006101000a81548173ffffffffffffffffffffffffffffffffffffffff021916908373ffffffffffffffffffffffffffffffffffffffff1602179055508260600151600260010160006101000a81548173ffffffffffffffffffffffffffffffffffffffff021916908373ffffffffffffffffffffffffffffffffffffffff160217905550806002800160006101000a81548173ffffffffffffffffffffffffffffffffffffffff021916908373ffffffffffffffffffffffffffffffffffffffff160217905550826080015160026003016000820151816000015560208201518160010155604082015181600201559050507f9848123ba141e26644059f3993427b10fe045ef81a9f876a081652b36fe85f0b8183604051610e4892919061516d565b60405180910390a15050508015610eac5760008060156101000a81548160ff0219169083151502179055507f7f26b83ff96e1f2b6a682f133852f6798a09c465da95921460cefb38474024986001604051610ea3919061529c565b60405180910390a15b50505050505050565b610ebd613c79565b73ffffffffffffffffffffffffffffffffffffffff16610edb612785565b73ffffffffffffffffffffffffffffffffffffffff1614610f31576040517f08c379a0000000000000000000000000000000000000000000000000000000008152600401610f2890615317565b60405180910390fd5b610f39613c81565b610f4d816010613cc190919063ffffffff16565b610f83576040517f1a8a3d2f00000000000000000000000000000000000000000000000000000000815260040160405180910390fd5b7f040b321f0ccd1b9d7890282c99da1d97cbf2de30c3af0782aba31fbd9528324381604051610fb29190615152565b60405180910390a150565b60006110b5600d60008673ffffffffffffffffffffffffffffffffffffffff1673ffffffffffffffffffffffffffffffffffffffff168152602001908152602001600020600101805480602002602001604051908101604052809291908181526020016000905b8282101561106a57838290600052602060002090600202016040518060400160405290816000820154815260200160018201548152505081526020019060010190611024565b5050505084611078856135dd565b611081866114c9565b866002600301604051806060016040529081600082015481526020016001820154815260200160028201548152505061322d565b6040015190509392505050565b620f424081565b6000805b83518110156111365760008482815181106110eb576110ea615846565b5b60200260200101519050600061110a8260000151836020015187612750565b905061111f8185613cf190919063ffffffff16565b93505050808061112e90615712565b9150506110cd565b5092915050565b611145613c79565b73ffffffffffffffffffffffffffffffffffffffff16611163612785565b73ffffffffffffffffffffffffffffffffffffffff16146111b9576040517f08c379a00000000000000000000000000000000000000000000000000000000081526004016111b090615317565b60405180910390fd5b6111c1613c81565b6111d5816010613d0790919063ffffffff16565b61120b576040517f49d8266e00000000000000000000000000000000000000000000000000000000815260040160405180910390fd5b7f059b5054f04b000050b3cbdf0ad2d8bce0dfca886836a4742ab837cc948cd1af8160405161123a9190615152565b60405180910390a150565b61124d613d37565b611255613d77565b61125e8461178c565b611294576040517fd03a632000000000000000000000000000000000000000000000000000000000815260040160405180910390fd5b60008314156112cf576040517f7e6e0ea900000000000000000000000000000000000000000000000000000000815260040160405180910390fd5b6000600d60008673ffffffffffffffffffffffffffffffffffffffff1673ffffffffffffffffffffffffffffffffffffffff1681526020019081526020016000209050601e816001018054905010611353576040517f1846ef1600000000000000000000000000000000000000000000000000000000815260040160405180910390fd5b61135b613db7565b806001016040518060400160405280868152602001428152509080600181540180825580915050600190039060005260206000209060020201600090919091909150600082015181600001556020820151816001015550506113ca848260000154613cf190919063ffffffff16565b81600001819055506113ea84600260070154613cf190919063ffffffff16565b6002600701819055508473ffffffffffffffffffffffffffffffffffffffff1663c792f45d600260000160009054906101000a900473ffffffffffffffffffffffffffffffffffffffff168686866040518563ffffffff1660e01b815260040161145794939291906151f6565b600060405180830381600087803b15801561147157600080fd5b505af1158015611485573d6000803e3d6000fd5b505050507f9e71bc8eea02a63969f509818f2dafb9254532904319f9dbda79b67bd34a5f3d85856040516114ba9291906151cd565b60405180910390a15050505050565b60006002600901548214156114e557600260080154905061151a565b60006114fc60026007015460026009015485612750565b905061151681600260080154613cf190919063ffffffff16565b9150505b919050565b6000600160009054906101000a900473ffffffffffffffffffffffffffffffffffffffff1673ffffffffffffffffffffffffffffffffffffffff1663438cae7e6040518163ffffffff1660e01b815260040160206040518083038186803b15801561158957600080fd5b505afa15801561159d573d6000803e3d6000fd5b505050506040513d601f19601f820116820180604052508101906115c19190614a2e565b905090565b60006115dc82600e613dd490919063ffffffff16565b9050919050565b60006003808111156115f8576115f76157e8565b5b600160009054906101000a900473ffffffffffffffffffffffffffffffffffffffff1673ffffffffffffffffffffffffffffffffffffffff16634e69d5606040518163ffffffff1660e01b815260040160206040518083038186803b15801561166057600080fd5b505afa158015611674573d6000803e3d6000fd5b505050506040513d601f19601f820116820180604052508101906116989190614a5b565b60038111156116aa576116a96157e8565b5b1415905090565b6116b96141d1565b600d60008373ffffffffffffffffffffffffffffffffffffffff1673ffffffffffffffffffffffffffffffffffffffff1681526020019081526020016000206040518060400160405290816000820154815260200160018201805480602002602001604051908101604052809291908181526020016000905b8282101561177857838290600052602060002090600202016040518060400160405290816000820154815260200160018201548152505081526020019060010190611732565b50505050815250509050919050565b603281565b600080600090505b61179e6010613dee565b811015611863576117b9816010613dd490919063ffffffff16565b73ffffffffffffffffffffffffffffffffffffffff16636b44e6be846040518263ffffffff1660e01b81526004016117f19190615152565b60206040518083038186803b15801561180957600080fd5b505afa15801561181d573d6000803e3d6000fd5b505050506040513d601f19601f820116820180604052508101906118419190614a2e565b15611850576001915050611869565b808061185b90615712565b915050611794565b50600090505b919050565b600061187a6010613dee565b905090565b611887613d37565b61188f613d77565b6000600d60008673ffffffffffffffffffffffffffffffffffffffff1673ffffffffffffffffffffffffffffffffffffffff1681526020019081526020016000209050600084141561190d576040517fb6bea6a800000000000000000000000000000000000000000000000000000000815260040160405180910390fd5b838160000154101561194b576040517f16bdadd300000000000000000000000000000000000000000000000000000000815260040160405180910390fd5b8360026007015410156119615761196061575b565b5b611969613db7565b6000600260010160009054906101000a900473ffffffffffffffffffffffffffffffffffffffff1673ffffffffffffffffffffffffffffffffffffffff166370a082316002800160009054906101000a900473ffffffffffffffffffffffffffffffffffffffff166040518263ffffffff1660e01b81526004016119ed9190615152565b60206040518083038186803b158015611a0557600080fd5b505afa158015611a19573d6000803e3d6000fd5b505050506040513d601f19601f82011682018060405250810190611a3d9190614ae2565b90506000611aca6002600a01805480602002602001604051908101604052809291908181526020016000905b82821015611ab95783829060005260206000209060030201604051806060016040529081600082015481526020016001820154815260200160028201548152505081526020019060010190611a69565b50505050836002600601544261304e565b90506000611b7b84600101805480602002602001604051908101604052809291908181526020016000905b82821015611b3b57838290600052602060002090600202016040518060400160405290816000820154815260200160018201548152505081526020019060010190611af5565b505050508884600260080154426002600301604051806060016040529081600082015481526020016001820154815260200160028201548152505061322d565b9050600081602001511415611b9f57836001016000611b9a91906141eb565b611c4b565b5b806020015184600101805490501115611bf55783600101805480611bc757611bc6615817565b5b6001900381819060005260206000209060020201600080820160009055600182016000905550509055611ba0565b600081600001511115611c4a57806000015184600101611c2360018460200151613e0390919063ffffffff16565b81548110611c3457611c33615846565b5b9060005260206000209060020201600001819055505b5b611c62878560000154613e0390919063ffffffff16565b8460000181905550611c8287600260070154613e0390919063ffffffff16565b60026007018190555080606001516002600801819055508773ffffffffffffffffffffffffffffffffffffffff1663abee0803600260000160009054906101000a900473ffffffffffffffffffffffffffffffffffffffff168989896040518563ffffffff1660e01b8152600401611cfd94939291906151f6565b600060405180830381600087803b158015611d1757600080fd5b505af1158015611d2b573d6000803e3d6000fd5b505050507f0f5bb82176feb1b5e747e28471aa92156a04d9f3ab9f45f28e2d704232b93f758888604051611d609291906151cd565b60405180910390a16000816040015111156120e6576000611da584611d978460400151600260060154613e1990919063ffffffff16565b613e2f90919063ffffffff16565b9050611dbf81600260060154613e0390919063ffffffff16565b6002600601819055506000611dd4600e613dee565b1115611fc45760005b611de7600e613dee565b811015611fc2576000611e0482600e613dd490919063ffffffff16565b90506000611edd87611ecf87604001518573ffffffffffffffffffffffffffffffffffffffff166370a082316002800160009054906101000a900473ffffffffffffffffffffffffffffffffffffffff166040518263ffffffff1660e01b8152600401611e719190615152565b60206040518083038186803b158015611e8957600080fd5b505afa158015611e9d573d6000803e3d6000fd5b505050506040513d601f19601f82011682018060405250810190611ec19190614ae2565b613e1990919063ffffffff16565b613e2f90919063ffffffff16565b90506002800160009054906101000a900473ffffffffffffffffffffffffffffffffffffffff1673ffffffffffffffffffffffffffffffffffffffff16638f975a64838e846040518463ffffffff1660e01b8152600401611f4093929190615196565b600060405180830381600087803b158015611f5a57600080fd5b505af1158015611f6e573d6000803e3d6000fd5b505050507f0aa4d283470c904c551d18bb894d37e17674920f3261a7f854be501e25f421b78c8383604051611fa593929190615196565b60405180910390a150508080611fba90615712565b915050611ddd565b505b6002800160009054906101000a900473ffffffffffffffffffffffffffffffffffffffff1673ffffffffffffffffffffffffffffffffffffffff16638f975a64600260010160009054906101000a900473ffffffffffffffffffffffffffffffffffffffff168b85604001516040518463ffffffff1660e01b815260040161204e93929190615196565b600060405180830381600087803b15801561206857600080fd5b505af115801561207c573d6000803e3d6000fd5b505050507f0aa4d283470c904c551d18bb894d37e17674920f3261a7f854be501e25f421b789600260010160009054906101000a900473ffffffffffffffffffffffffffffffffffffffff1684604001516040516120dc93929190615196565b60405180910390a1505b5050505050505050565b6000600160009054906101000a900473ffffffffffffffffffffffffffffffffffffffff1673ffffffffffffffffffffffffffffffffffffffff1663664ab18e6040518163ffffffff1660e01b815260040160206040518083038186803b15801561215a57600080fd5b505afa15801561216e573d6000803e3d6000fd5b505050506040513d601f19601f820116820180604052508101906121929190614a2e565b905090565b601e81565b6121a4613c79565b73ffffffffffffffffffffffffffffffffffffffff166121c2612785565b73ffffffffffffffffffffffffffffffffffffffff1614612218576040517f08c379a000000000000000000000000000000000000000000000000000000000815260040161220f90615317565b60405180910390fd5b6122226000613b71565b565b6000600160009054906101000a900473ffffffffffffffffffffffffffffffffffffffff1673ffffffffffffffffffffffffffffffffffffffff1663766f13bc6040518163ffffffff1660e01b815260040160206040518083038186803b15801561228e57600080fd5b505afa1580156122a2573d6000803e3d6000fd5b505050506040513d601f19601f820116820180604052508101906122c6919061471e565b905090565b60006122d78242612dac565b9050919050565b6000612416600d60008473ffffffffffffffffffffffffffffffffffffffff1673ffffffffffffffffffffffffffffffffffffffff168152602001908152602001600020600101805480602002602001604051908101604052809291908181526020016000905b8282101561238b57838290600052602060002090600202016040518060400160405290816000820154815260200160018201548152505081526020019060010190612345565b50505050600d60008573ffffffffffffffffffffffffffffffffffffffff1673ffffffffffffffffffffffffffffffffffffffff168152602001908152602001600020600001546123da6135bc565b6123e2610a63565b426002600301604051806060016040529081600082015481526020016001820154815260200160028201548152505061322d565b604001519050919050565b600061255b600d60008573ffffffffffffffffffffffffffffffffffffffff1673ffffffffffffffffffffffffffffffffffffffff168152602001908152602001600020600101805480602002602001604051908101604052809291908181526020016000905b828210156124ce57838290600052602060002090600202016040518060400160405290816000820154815260200160018201548152505081526020019060010190612488565b50505050600d60008673ffffffffffffffffffffffffffffffffffffffff1673ffffffffffffffffffffffffffffffffffffffff1681526020019081526020016000206000015461251e856135dd565b612527866114c9565b866002600301604051806060016040529081600082015481526020016001820154815260200160028201548152505061322d565b60400151905092915050565b60006125736001613a7e565b90508015612597576001600060156101000a81548160ff0219169083151502179055505b80156125f05760008060156101000a81548160ff0219169083151502179055507f7f26b83ff96e1f2b6a682f133852f6798a09c465da95921460cefb384740249860016040516125e7919061529c565b60405180910390a15b50565b6000806126098587613e1990919063ffffffff16565b9050600080851461263c576126398561262b848b613e1990919063ffffffff16565b613e2f90919063ffffffff16565b90505b836040015186101580612656575083602001518460000151145b156126635780925061271b565b60006126928560200151612684876000015185613e1990919063ffffffff16565b613e2f90919063ffffffff16565b9050600061270186604001516126f388602001516126e56126c48b600001518c60200151613e0390919063ffffffff16565b6126d78e8a613e1990919063ffffffff16565b613e1990919063ffffffff16565b613e2f90919063ffffffff16565b613e2f90919063ffffffff16565b90506127168183613cf190919063ffffffff16565b945050505b505095945050505050565b6000600160009054906101000a900473ffffffffffffffffffffffffffffffffffffffff16905090565b6000806127668484613e0390919063ffffffff16565b905061277b8582613e1990919063ffffffff16565b9150509392505050565b60008060009054906101000a900473ffffffffffffffffffffffffffffffffffffffff16905090565b6127b6613c79565b73ffffffffffffffffffffffffffffffffffffffff166127d4612785565b73ffffffffffffffffffffffffffffffffffffffff161461282a576040517f08c379a000000000000000000000000000000000000000000000000000000000815260040161282190615317565b60405180910390fd5b612832613d37565b61283b81613e45565b6032612847600e613dee565b1061287e576040517fd3f5862600000000000000000000000000000000000000000000000000000000815260040160405180910390fd5b61289281600e613d0790919063ffffffff16565b61289f5761289e61575b565b5b7fbca954c637e20d265d501f3c0c9d0df1440001376c36ac73bd296c1a628f528c816040516128ce9190615152565b60405180910390a150565b60006129cf600d60008573ffffffffffffffffffffffffffffffffffffffff1673ffffffffffffffffffffffffffffffffffffffff168152602001908152602001600020600101805480602002602001604051908101604052809291908181526020016000905b8282101561298657838290600052602060002090600202016040518060400160405290816000820154815260200160018201548152505081526020019060010190612940565b50505050836129936135bc565b61299b610a63565b426002600301604051806060016040529081600082015481526020016001820154815260200160028201548152505061322d565b60400151905092915050565b60006129f1826010613dd490919063ffffffff16565b9050919050565b612a00613c79565b73ffffffffffffffffffffffffffffffffffffffff16612a1e612785565b73ffffffffffffffffffffffffffffffffffffffff1614612a74576040517f08c379a0000000000000000000000000000000000000000000000000000000008152600401612a6b90615317565b60405180910390fd5b612a7c613d37565b6000811415612ab7576040517f7616640100000000000000000000000000000000000000000000000000000000815260040160405180910390fd5b6000612af4612710612ae6601260149054906101000a900461ffff1661ffff1686613e1990919063ffffffff16565b613e2f90919063ffffffff16565b9050612b098184613e0390919063ffffffff16565b9250612b5e600260010160009054906101000a900473ffffffffffffffffffffffffffffffffffffffff1633601260009054906101000a900473ffffffffffffffffffffffffffffffffffffffff1684613e92565b6000806002600601541115612c75576000600260010160009054906101000a900473ffffffffffffffffffffffffffffffffffffffff1673ffffffffffffffffffffffffffffffffffffffff166370a082316002800160009054906101000a900473ffffffffffffffffffffffffffffffffffffffff166040518263ffffffff1660e01b8152600401612bf19190615152565b60206040518083038186803b158015612c0957600080fd5b505afa158015612c1d573d6000803e3d6000fd5b505050506040513d601f19601f82011682018060405250810190612c419190614ae2565b9050612c6d81612c5f87600260060154613e1990919063ffffffff16565b613e2f90919063ffffffff16565b915050612c8e565b612c8b620f424085613e1990919063ffffffff16565b90505b612ca681600260060154613cf190919063ffffffff16565b6002600601819055506002600a0160405180606001604052808581526020014281526020018381525090806001815401808255809150506001900390600052602060002090600302016000909190919091506000820151816000015560208201518160010155604082015181600201555050612d6d600260010160009054906101000a900473ffffffffffffffffffffffffffffffffffffffff16336002800160009054906101000a900473ffffffffffffffffffffffffffffffffffffffff1687613e92565b7fd1652c5efcfb913fe86636bfe9bb19ebb9dd32519e48bb69ffc880e5c2637e1d8484604051612d9e9291906153b1565b60405180910390a150505050565b6000612e63600d60008573ffffffffffffffffffffffffffffffffffffffff1673ffffffffffffffffffffffffffffffffffffffff168152602001908152602001600020600101805480602002602001604051908101604052809291908181526020016000905b82821015612e5957838290600052602060002090600202016040518060400160405290816000820154815260200160018201548152505081526020019060010190612e13565b50505050836110c9565b905092915050565b6000600d60003373ffffffffffffffffffffffffffffffffffffffff1673ffffffffffffffffffffffffffffffffffffffff1681526020019081526020016000209050600081600101805490501415612ef0576040517fb36e4e6c00000000000000000000000000000000000000000000000000000000815260040160405180910390fd5b612ef8613db7565b7f0f5bb82176feb1b5e747e28471aa92156a04d9f3ab9f45f28e2d704232b93f75338260000154604051612f2d9291906151cd565b60405180910390a1612f518160000154600260070154613e0390919063ffffffff16565b600260070181905550612fe8612fd482600101805480602002602001604051908101604052809291908181526020016000905b82821015612fca57838290600052602060002090600202016040518060400160405290816000820154815260200160018201548152505081526020019060010190612f84565b50505050426110c9565b600260080154613e0390919063ffffffff16565b600260080181905550600d60003373ffffffffffffffffffffffffffffffffffffffff1673ffffffffffffffffffffffffffffffffffffffff16815260200190815260200160002060008082016000905560018201600061304991906141eb565b505050565b60008085511415613062576000905061317e565b600080600090505b865181101561313c57600087828151811061308857613087615846565b5b60200260200101519050600081600001516130b0836020015188613e0390919063ffffffff16565b10156131125761310f6130fc83600001516130ee6130db86602001518b613e0390919063ffffffff16565b8660400151613e1990919063ffffffff16565b613e2f90919063ffffffff16565b8360400151613e0390919063ffffffff16565b90505b6131258185613cf190919063ffffffff16565b93505050808061313490615712565b91505061306a565b506000613164856131568885613e1990919063ffffffff16565b613e2f90919063ffffffff16565b90506131798187613e0390919063ffffffff16565b925050505b949350505050565b6000600160009054906101000a900473ffffffffffffffffffffffffffffffffffffffff1673ffffffffffffffffffffffffffffffffffffffff1663bf86d6906040518163ffffffff1660e01b815260040160206040518083038186803b1580156131f057600080fd5b505afa158015613204573d6000803e3d6000fd5b505050506040513d601f19601f820116820180604052508101906132289190614a2e565b905090565b61323561420f565b60005b600087111561337f5760008861326b600161325d858d51613e0390919063ffffffff16565b613e0390919063ffffffff16565b8151811061327c5761327b615846565b5b60200260200101519050600061329f826020015187613e0390919063ffffffff16565b9050600089836000015111156132d7578990506132c98a8460000151613e0390919063ffffffff16565b8560000181815250506132ee565b826000015190506001846132eb9190615501565b93505b613301818b613e0390919063ffffffff16565b995060006133128a83858c8b6125f3565b905061332b818760400151613cf190919063ffffffff16565b866040018181525050613347818b613e0390919063ffffffff16565b9950600061335e8484613e1990919063ffffffff16565b9050613373818b613e0390919063ffffffff16565b99505050505050613238565b6040518060800160405280836000015181526020016133a8838b51613e0390919063ffffffff16565b815260200183604001518152602001868152509150509695505050505050565b6133d0614237565b6002604051806101200160405290816000820160009054906101000a900473ffffffffffffffffffffffffffffffffffffffff1673ffffffffffffffffffffffffffffffffffffffff1673ffffffffffffffffffffffffffffffffffffffff1681526020016001820160009054906101000a900473ffffffffffffffffffffffffffffffffffffffff1673ffffffffffffffffffffffffffffffffffffffff1673ffffffffffffffffffffffffffffffffffffffff1681526020016002820160009054906101000a900473ffffffffffffffffffffffffffffffffffffffff1673ffffffffffffffffffffffffffffffffffffffff1673ffffffffffffffffffffffffffffffffffffffff168152602001600382016040518060600160405290816000820154815260200160018201548152602001600282015481525050815260200160068201548152602001600782015481526020016008820154815260200160098201548152602001600a8201805480602002602001604051908101604052809291908181526020016000905b828210156135af578382906000526020600020906003020160405180606001604052908160008201548152602001600182015481526020016002820154815250508152602001906001019061355f565b5050505081525050905090565b60006135c7426135dd565b905090565b60006135d8600e613dee565b905090565b600080600260010160009054906101000a900473ffffffffffffffffffffffffffffffffffffffff1673ffffffffffffffffffffffffffffffffffffffff166370a082316002800160009054906101000a900473ffffffffffffffffffffffffffffffffffffffff166040518263ffffffff1660e01b81526004016136629190615152565b60206040518083038186803b15801561367a57600080fd5b505afa15801561368e573d6000803e3d6000fd5b505050506040513d601f19601f820116820180604052508101906136b29190614ae2565b905061373d6002600a01805480602002602001604051908101604052809291908181526020016000905b8282101561372c57838290600052602060002090600302016040518060600160405290816000820154815260200160018201548152602001600282015481525050815260200190600101906136dc565b50505050826002600601548661304e565b915050919050565b61374d613c79565b73ffffffffffffffffffffffffffffffffffffffff1661376b612785565b73ffffffffffffffffffffffffffffffffffffffff16146137c1576040517f08c379a00000000000000000000000000000000000000000000000000000000081526004016137b890615317565b60405180910390fd5b600073ffffffffffffffffffffffffffffffffffffffff168173ffffffffffffffffffffffffffffffffffffffff161415613831576040517f08c379a0000000000000000000000000000000000000000000000000000000008152600401613828906152b7565b60405180910390fd5b61383a81613b71565b50565b613845613c79565b73ffffffffffffffffffffffffffffffffffffffff16613863612785565b73ffffffffffffffffffffffffffffffffffffffff16146138b9576040517f08c379a00000000000000000000000000000000000000000000000000000000081526004016138b090615317565b60405180910390fd5b6138c1613d37565b6138ca82613e45565b600260010160009054906101000a900473ffffffffffffffffffffffffffffffffffffffff1673ffffffffffffffffffffffffffffffffffffffff168373ffffffffffffffffffffffffffffffffffffffff16141561396057826040517f8e4c8aa60000000000000000000000000000000000000000000000000000000081526004016139579190615152565b60405180910390fd5b61397483600e613a4e90919063ffffffff16565b156139b657826040517f8e4c8aa60000000000000000000000000000000000000000000000000000000081526004016139ad9190615152565b60405180910390fd5b6002800160009054906101000a900473ffffffffffffffffffffffffffffffffffffffff1673ffffffffffffffffffffffffffffffffffffffff16638f975a648484846040518463ffffffff1660e01b8152600401613a1793929190615196565b600060405180830381600087803b158015613a3157600080fd5b505af1158015613a45573d6000803e3d6000fd5b50505050505050565b6000613a76836000018373ffffffffffffffffffffffffffffffffffffffff1660001b613fcb565b905092915050565b60008060159054906101000a900460ff1615613af55760018260ff16148015613aad5750613aab30613fee565b155b613aec576040517f08c379a0000000000000000000000000000000000000000000000000000000008152600401613ae3906152f7565b60405180910390fd5b60009050613b6c565b8160ff16600060149054906101000a900460ff1660ff1610613b4c576040517f08c379a0000000000000000000000000000000000000000000000000000000008152600401613b43906152f7565b60405180910390fd5b81600060146101000a81548160ff021916908360ff160217905550600190505b919050565b60008060009054906101000a900473ffffffffffffffffffffffffffffffffffffffff169050816000806101000a81548173ffffffffffffffffffffffffffffffffffffffff021916908373ffffffffffffffffffffffffffffffffffffffff1602179055508173ffffffffffffffffffffffffffffffffffffffff168173ffffffffffffffffffffffffffffffffffffffff167f8be0079c531659141344cd1fd0a4f28419497f9722a3daafe3b4186f6b6457e060405160405180910390a35050565b80600160006101000a81548173ffffffffffffffffffffffffffffffffffffffff021916908373ffffffffffffffffffffffffffffffffffffffff16021790555050565b600033905090565b613c89613186565b15613cbf576040517e89a30f00000000000000000000000000000000000000000000000000000000815260040160405180910390fd5b565b6000613ce9836000018373ffffffffffffffffffffffffffffffffffffffff1660001b614011565b905092915050565b60008183613cff9190615501565b905092915050565b6000613d2f836000018373ffffffffffffffffffffffffffffffffffffffff1660001b614125565b905092915050565b613d3f6120f0565b613d75576040517f7ff2ee0000000000000000000000000000000000000000000000000000000000815260040160405180910390fd5b565b613d7f6115e3565b613db5576040517f71dd7a6400000000000000000000000000000000000000000000000000000000815260040160405180910390fd5b565b613dbf610a63565b60026008018190555042600260090181905550565b6000613de38360000183614195565b60001c905092915050565b6000613dfc826000016141c0565b9050919050565b60008183613e1191906155e2565b905092915050565b60008183613e279190615588565b905092915050565b60008183613e3d9190615557565b905092915050565b613e4e816108be565b613e8f57806040517f8e4c8aa6000000000000000000000000000000000000000000000000000000008152600401613e869190615152565b60405180910390fd5b50565b6000808573ffffffffffffffffffffffffffffffffffffffff166323b872dd868686604051602401613ec693929190615196565b6040516020818303038152906040529060e01b6020820180517bffffffffffffffffffffffffffffffffffffffffffffffffffffffff8381831617835250505050604051613f14919061513b565b6000604051808303816000865af19150503d8060008114613f51576040519150601f19603f3d011682016040523d82523d6000602084013e613f56565b606091505b5091509150818015613f845750600081511480613f83575080806020019051810190613f829190614a2e565b5b5b613fc3576040517f08c379a0000000000000000000000000000000000000000000000000000000008152600401613fba906152d7565b60405180910390fd5b505050505050565b600080836001016000848152602001908152602001600020541415905092915050565b6000808273ffffffffffffffffffffffffffffffffffffffff163b119050919050565b6000808360010160008481526020019081526020016000205490506000811461411957600060018261404391906155e2565b905060006001866000018054905061405b91906155e2565b90508181146140ca57600086600001828154811061407c5761407b615846565b5b90600052602060002001549050808760000184815481106140a05761409f615846565b5b90600052602060002001819055508387600101600083815260200190815260200160002081905550505b856000018054806140de576140dd615817565b5b60019003818190600052602060002001600090559055856001016000868152602001908152602001600020600090556001935050505061411f565b60009150505b92915050565b60006141318383613fcb565b61418a57826000018290806001815401808255809150506001900390600052602060002001600090919091909150558260000180549050836001016000848152602001908152602001600020819055506001905061418f565b600090505b92915050565b60008260000182815481106141ad576141ac615846565b5b9060005260206000200154905092915050565b600081600001805490509050919050565b604051806040016040528060008152602001606081525090565b508054600082556002029060005260206000209081019061420c91906142cb565b50565b6040518060800160405280600081526020016000815260200160008152602001600081525090565b604051806101200160405280600073ffffffffffffffffffffffffffffffffffffffff168152602001600073ffffffffffffffffffffffffffffffffffffffff168152602001600073ffffffffffffffffffffffffffffffffffffffff1681526020016142a26142f2565b815260200160008152602001600081526020016000815260200160008152602001606081525090565b5b808211156142ee576000808201600090556001820160009055506002016142cc565b5090565b60405180606001604052806000815260200160008152602001600081525090565b6000614326614321846153ff565b6153da565b90508083825260208201905082856060860282011115614349576143486158b3565b5b60005b85811015614379578161435f88826145e9565b84526020840193506060830192505060018101905061434c565b5050509392505050565b60006143966143918461542b565b6153da565b905080838252602082019050828560408602820111156143b9576143b86158b3565b5b60005b858110156143e957816143cf888261464d565b8452602084019350604083019250506001810190506143bc565b5050509392505050565b600081359050614402816159e9565b92915050565b600081519050614417816159e9565b92915050565b600082601f830112614432576144316158a9565b5b8135614442848260208601614313565b91505092915050565b600082601f8301126144605761445f6158a9565b5b8135614470848260208601614383565b91505092915050565b60008151905061448881615a00565b92915050565b60008083601f8401126144a4576144a36158a9565b5b8235905067ffffffffffffffff8111156144c1576144c06158a4565b5b6020830191508360018202830111156144dd576144dc6158b3565b5b9250929050565b6000815190506144f381615a17565b92915050565b600060e0828403121561450f5761450e6158ae565b5b61451960a06153da565b90506000614529848285016143f3565b600083015250602061453d848285016143f3565b6020830152506040614551848285016143f3565b6040830152506060614565848285016143f3565b606083015250608061457984828501614585565b60808301525092915050565b60006060828403121561459b5761459a6158ae565b5b6145a560606153da565b905060006145b5848285016146b2565b60008301525060206145c9848285016146b2565b60208301525060406145dd848285016146b2565b60408301525092915050565b6000606082840312156145ff576145fe6158ae565b5b61460960606153da565b90506000614619848285016146b2565b600083015250602061462d848285016146b2565b6020830152506040614641848285016146b2565b60408301525092915050565b600060408284031215614663576146626158ae565b5b61466d60406153da565b9050600061467d848285016146b2565b6000830152506020614691848285016146b2565b60208301525092915050565b6000813590506146ac81615a27565b92915050565b6000813590506146c181615a3e565b92915050565b6000815190506146d681615a3e565b92915050565b6000813590506146eb81615a55565b92915050565b600060208284031215614707576147066158bd565b5b6000614715848285016143f3565b91505092915050565b600060208284031215614734576147336158bd565b5b600061474284828501614408565b91505092915050565b600080600060608486031215614764576147636158bd565b5b6000614772868287016143f3565b9350506020614783868287016143f3565b9250506040614794868287016146b2565b9150509250925092565b600080604083850312156147b5576147b46158bd565b5b60006147c3858286016143f3565b92505060206147d4858286016146b2565b9150509250929050565b600080600080606085870312156147f8576147f76158bd565b5b6000614806878288016143f3565b9450506020614817878288016146b2565b935050604085013567ffffffffffffffff811115614838576148376158b8565b5b6148448782880161448e565b925092505092959194509250565b60008060006060848603121561486b5761486a6158bd565b5b6000614879868287016143f3565b935050602061488a868287016146b2565b925050604061489b868287016146b2565b9150509250925092565b600080600080608085870312156148bf576148be6158bd565b5b600085013567ffffffffffffffff8111156148dd576148dc6158b8565b5b6148e98782880161441d565b94505060206148fa878288016146b2565b935050604061490b878288016146b2565b925050606061491c878288016146b2565b91505092959194509250565b6000806040838503121561493f5761493e6158bd565b5b600083013567ffffffffffffffff81111561495d5761495c6158b8565b5b6149698582860161444b565b925050602061497a858286016146b2565b9150509250929050565b60008060008060008061010087890312156149a2576149a16158bd565b5b600087013567ffffffffffffffff8111156149c0576149bf6158b8565b5b6149cc89828a0161444b565b96505060206149dd89828a016146b2565b95505060406149ee89828a016146b2565b94505060606149ff89828a016146b2565b9350506080614a1089828a016146b2565b92505060a0614a2189828a01614585565b9150509295509295509295565b600060208284031215614a4457614a436158bd565b5b6000614a5284828501614479565b91505092915050565b600060208284031215614a7157614a706158bd565b5b6000614a7f848285016144e4565b91505092915050565b600060e08284031215614a9e57614a9d6158bd565b5b6000614aac848285016144f9565b91505092915050565b600060208284031215614acb57614aca6158bd565b5b6000614ad9848285016146b2565b91505092915050565b600060208284031215614af857614af76158bd565b5b6000614b06848285016146c7565b91505092915050565b60008060408385031215614b2657614b256158bd565b5b6000614b34858286016146b2565b9250506020614b45858286016146b2565b9150509250929050565b600080600060608486031215614b6857614b676158bd565b5b6000614b76868287016146b2565b9350506020614b87868287016146b2565b9250506040614b98868287016146b2565b9150509250925092565b600080600080600060e08688031215614bbe57614bbd6158bd565b5b6000614bcc888289016146b2565b9550506020614bdd888289016146b2565b9450506040614bee888289016146b2565b9350506060614bff888289016146b2565b9250506080614c1088828901614585565b9150509295509295909350565b60008060008060008060a08789031215614c3a57614c396158bd565b5b6000614c4889828a016146dc565b9650506020614c5989828a016143f3565b9550506040614c6a89828a016143f3565b9450506060614c7b89828a0161469d565b935050608087013567ffffffffffffffff811115614c9c57614c9b6158b8565b5b614ca889828a0161448e565b92509250509295509295509295565b6000614cc38383615060565b60608301905092915050565b6000614cdb83836150a2565b60408301905092915050565b614cf081615616565b82525050565b614cff81615616565b82525050565b6000614d1082615477565b614d1a81856154b2565b9350614d2583615457565b8060005b83811015614d56578151614d3d8882614cb7565b9750614d4883615498565b925050600181019050614d29565b5085935050505092915050565b6000614d6e82615482565b614d7881856154c3565b9350614d8383615467565b8060005b83811015614db4578151614d9b8882614ccf565b9750614da6836154a5565b925050600181019050614d87565b5085935050505092915050565b614dca81615628565b82525050565b6000614ddc83856154d4565b9350614de983858461569f565b614df2836158c2565b840190509392505050565b6000614e088261548d565b614e1281856154d4565b9350614e228185602086016156ae565b614e2b816158c2565b840191505092915050565b6000614e418261548d565b614e4b81856154e5565b9350614e5b8185602086016156ae565b80840191505092915050565b614e708161568d565b82525050565b6000614e836026836154f0565b9150614e8e826158d3565b604082019050919050565b6000614ea66031836154f0565b9150614eb182615922565b604082019050919050565b6000614ec9602e836154f0565b9150614ed482615971565b604082019050919050565b6000614eec6020836154f0565b9150614ef7826159c0565b602082019050919050565b600061016083016000830151614f1b6000860182614ce7565b506020830151614f2e6020860182614ce7565b506040830151614f416040860182614ce7565b506060830151614f54606086018261501e565b506080830151614f6760c086018261510e565b5060a0830151614f7a60e086018261510e565b5060c0830151614f8e61010086018261510e565b5060e0830151614fa261012086018261510e565b50610100830151848203610140860152614fbc8282614d05565b9150508091505092915050565b608082016000820151614fdf600085018261510e565b506020820151614ff2602085018261510e565b506040820151615005604085018261510e565b506060820151615018606085018261510e565b50505050565b606082016000820151615034600085018261510e565b506020820151615047602085018261510e565b50604082015161505a604085018261510e565b50505050565b606082016000820151615076600085018261510e565b506020820151615089602085018261510e565b50604082015161509c604085018261510e565b50505050565b6040820160008201516150b8600085018261510e565b5060208201516150cb602085018261510e565b50505050565b60006040830160008301516150e9600086018261510e565b50602083015184820360208601526151018282614d63565b9150508091505092915050565b61511781615662565b82525050565b61512681615662565b82525050565b6151358161566c565b82525050565b60006151478284614e36565b915081905092915050565b60006020820190506151676000830184614cf6565b92915050565b60006040820190506151826000830185614cf6565b61518f6020830184614cf6565b9392505050565b60006060820190506151ab6000830186614cf6565b6151b86020830185614cf6565b6151c5604083018461511d565b949350505050565b60006040820190506151e26000830185614cf6565b6151ef602083018461511d565b9392505050565b600060608201905061520b6000830187614cf6565b615218602083018661511d565b818103604083015261522b818486614dd0565b905095945050505050565b600060408201905061524b6000830185614cf6565b615258602083018461512c565b9392505050565b60006020820190506152746000830184614dc1565b92915050565b600060208201905081810360008301526152948184614dfd565b905092915050565b60006020820190506152b16000830184614e67565b92915050565b600060208201905081810360008301526152d081614e76565b9050919050565b600060208201905081810360008301526152f081614e99565b9050919050565b6000602082019050818103600083015261531081614ebc565b9050919050565b6000602082019050818103600083015261533081614edf565b9050919050565b600060208201905081810360008301526153518184614f02565b905092915050565b600060808201905061536e6000830184614fc9565b92915050565b6000602082019050818103600083015261538e81846150d1565b905092915050565b60006020820190506153ab600083018461511d565b92915050565b60006040820190506153c6600083018561511d565b6153d3602083018461511d565b9392505050565b60006153e46153f5565b90506153f082826156e1565b919050565b6000604051905090565b600067ffffffffffffffff82111561541a57615419615875565b5b602082029050602081019050919050565b600067ffffffffffffffff82111561544657615445615875565b5b602082029050602081019050919050565b6000819050602082019050919050565b6000819050602082019050919050565b600081519050919050565b600081519050919050565b600081519050919050565b6000602082019050919050565b6000602082019050919050565b600082825260208201905092915050565b600082825260208201905092915050565b600082825260208201905092915050565b600081905092915050565b600082825260208201905092915050565b600061550c82615662565b915061551783615662565b9250827fffffffffffffffffffffffffffffffffffffffffffffffffffffffffffffffff0382111561554c5761554b61578a565b5b828201905092915050565b600061556282615662565b915061556d83615662565b92508261557d5761557c6157b9565b5b828204905092915050565b600061559382615662565b915061559e83615662565b9250817fffffffffffffffffffffffffffffffffffffffffffffffffffffffffffffffff04831182151516156155d7576155d661578a565b5b828202905092915050565b60006155ed82615662565b91506155f883615662565b92508282101561560b5761560a61578a565b5b828203905092915050565b600061562182615642565b9050919050565b60008115159050919050565b600061ffff82169050919050565b600073ffffffffffffffffffffffffffffffffffffffff82169050919050565b6000819050919050565b600067ffffffffffffffff82169050919050565b600060ff82169050919050565b600061569882615680565b9050919050565b82818337600083830152505050565b60005b838110156156cc5780820151818401526020810190506156b1565b838111156156db576000848401525b50505050565b6156ea826158c2565b810181811067ffffffffffffffff8211171561570957615708615875565b5b80604052505050565b600061571d82615662565b91507fffffffffffffffffffffffffffffffffffffffffffffffffffffffffffffffff8214156157505761574f61578a565b5b600182019050919050565b7f4e487b7100000000000000000000000000000000000000000000000000000000600052600160045260246000fd5b7f4e487b7100000000000000000000000000000000000000000000000000000000600052601160045260246000fd5b7f4e487b7100000000000000000000000000000000000000000000000000000000600052601260045260246000fd5b7f4e487b7100000000000000000000000000000000000000000000000000000000600052602160045260246000fd5b7f4e487b7100000000000000000000000000000000000000000000000000000000600052603160045260246000fd5b7f4e487b7100000000000000000000000000000000000000000000000000000000600052603260045260246000fd5b7f4e487b7100000000000000000000000000000000000000000000000000000000600052604160045260246000fd5b600080fd5b600080fd5b600080fd5b600080fd5b600080fd5b600080fd5b6000601f19601f8301169050919050565b7f4f776e61626c653a206e6577206f776e657220697320746865207a65726f206160008201527f6464726573730000000000000000000000000000000000000000000000000000602082015250565b7f5472616e7366657248656c7065723a3a7472616e7366657246726f6d3a20747260008201527f616e7366657246726f6d206661696c6564000000000000000000000000000000602082015250565b7f496e697469616c697a61626c653a20636f6e747261637420697320616c72656160008201527f647920696e697469616c697a6564000000000000000000000000000000000000602082015250565b7f4f776e61626c653a2063616c6c6572206973206e6f7420746865206f776e6572600082015250565b6159f281615616565b81146159fd57600080fd5b50565b615a0981615628565b8114615a1457600080fd5b50565b60048110615a2457600080fd5b50565b615a3081615634565b8114615a3b57600080fd5b50565b615a4781615662565b8114615a5257600080fd5b50565b615a5e8161566c565b8114615a6957600080fd5b5056fea2646970667358221220f52fdac4c6f1119eec3334b9880ceaa70402a24d10e1909e31e89f39d6d5f16664736f6c63430008060033",
  "devdoc": {
    "kind": "dev",
    "methods": {
      "fund(uint256,uint256)": {
        "params": {
          "amount": "uint256 Amount of reward tokens to deposit",
          "duration": "uint256 Duration over which to linearly unlock rewards"
        }
      },
      "owner()": {
        "details": "Returns the address of the current owner."
      },
      "rageQuit()": {
        "details": "This function should never revert when correctly called by the vault.      A max number of stakes per vault is set with MAX_STAKES_PER_VAULT to      place an upper bound on the for loop in calculateTotalStakeUnits(). access control: only callable by the vault directly state machine:   - when vault exists on this Aludel   - when active stake from this vault   - any power state state scope:   - decrease _aludel.totalStake   - increase _aludel.lastUpdate   - modify _aludel.totalStakeUnits   - delete _vaults[vault] token transfer: none"
      },
      "registerBonusToken(address)": {
        "details": "use this function to enable distribution of any ERC20 held by the RewardPool contract access control: only admin state machine:   - can be called multiple times   - only online state scope:   - append to _bonusTokenSet token transfer: none",
        "params": {
          "bonusToken": "address The address of the bonus token"
        }
      },
      "registerVaultFactory(address)": {
        "details": "use this function to enable stakes to vaults coming from the specified      factory contract access control: only admin state machine:   - can be called multiple times   - not shutdown state scope:   - append to _vaultFactorySet token transfer: none",
        "params": {
          "factory": "address The address of the vault factory"
        }
      },
      "removeVaultFactory(address)": {
        "details": "use this function to disable new stakes to vaults coming from the specified      factory contract.      note: vaults with existing stakes from this factory are sill able to unstake access control: only admin state machine:   - can be called multiple times   - not shutdown state scope:   - remove from _vaultFactorySet token transfer: none",
        "params": {
          "factory": "address The address of the vault factory"
        }
      },
      "renounceOwnership()": {
        "details": "Leaves the contract without owner. It will not be possible to call `onlyOwner` functions anymore. Can only be called by the current owner. NOTE: Renouncing ownership will leave the contract without an owner, thereby removing any functionality that is only available to the owner."
      },
      "rescueTokensFromRewardPool(address,address,uint256)": {
        "details": "use this function to rescue tokens from RewardPool contract      without distributing to stakers or triggering emergency shutdown access control: only admin state machine:   - can be called multiple times   - only online state scope: none token transfer: transfer requested token from RewardPool to recipient",
        "params": {
          "amount": "uint256 The amount of tokens to rescue",
          "recipient": "address The address of the recipient",
          "token": "address The address of the token to rescue"
        }
      },
      "stake(address,uint256,bytes)": {
        "params": {
          "amount": "uint256 The amount of staking tokens to stake",
          "permission": "bytes The signed lock permission for the universal vault",
          "vault": "address The address of the vault to stake from"
        }
      },
      "transferOwnership(address)": {
        "details": "Transfers ownership of the contract to a new account (`newOwner`). Can only be called by the current owner."
      },
      "unstakeAndClaim(address,uint256,bytes)": {
        "details": "rewards can only be claimed when unstaking, thus reseting the reward multiplier access control: anyone with a valid permission state machine:   - when vault exists on this Aludel   - after stake from vault   - can be called multiple times while sufficient stake remains   - only online state scope:   - decrease _aludel.rewardSharesOutstanding   - decrease _aludel.totalStake   - increase _aludel.lastUpdate   - modify _aludel.totalStakeUnits   - modify _vaults[vault].stakes   - decrease _vaults[vault].totalStake token transfer:   - transfer reward tokens from reward pool to vault   - transfer bonus tokens from reward pool to vault",
        "params": {
          "amount": "uint256 The amount of staking tokens to unstake",
          "permission": "bytes The signed lock permission for the universal vault",
          "vault": "address The vault to unstake from"
        }
      }
    },
    "title": "Aludel",
    "version": 1
  },
  "userdoc": {
    "kind": "user",
    "methods": {
      "fund(uint256,uint256)": {
        "notice": "Add funds to the Aludel access control: only admin state machine:   - can be called multiple times   - only online state scope:   - increase _aludel.rewardSharesOutstanding   - append to _aludel.rewardSchedules token transfer: transfer staking tokens from msg.sender to reward pool"
      },
      "initialize(uint64,address,address,uint16,bytes)": {
        "notice": "Initizalize Aludel access control: only proxy constructor state machine: can only be called once state scope: set initialization variables token transfer: none"
      },
      "rageQuit()": {
        "notice": "Exit Aludel without claiming reward"
      },
      "registerBonusToken(address)": {
        "notice": "Register bonus token for distribution"
      },
      "registerVaultFactory(address)": {
        "notice": "Add vault factory to whitelist"
      },
      "removeVaultFactory(address)": {
        "notice": "Remove vault factory from whitelist"
      },
      "rescueTokensFromRewardPool(address,address,uint256)": {
        "notice": "Rescue tokens from RewardPool"
      },
      "stake(address,uint256,bytes)": {
        "notice": "Stake tokens access control: anyone with a valid permission state machine:   - can be called multiple times   - only online   - when vault exists on this Aludel state scope:   - append to _vaults[vault].stakes   - increase _vaults[vault].totalStake   - increase _aludel.totalStake   - increase _aludel.totalStakeUnits   - increase _aludel.lastUpdate token transfer: transfer staking tokens from msg.sender to vault"
      },
      "unstakeAndClaim(address,uint256,bytes)": {
        "notice": "Unstake staking tokens and claim reward"
      }
    },
    "notice": "Reward distribution contract with time multiplier Access Control - Power controller:     Can power off / shutdown the Aludel     Can withdraw rewards from reward pool once shutdown - Aludel admin:     Can add funds to the Aludel, register bonus tokens, and whitelist new vault factories     Is a subset of proxy owner permissions - User:     Can deposit / withdraw / ragequit Aludel State Machine - Online:     Aludel is operating normally, all functions are enabled - Offline:     Aludel is temporarely disabled for maintenance     User deposits and withdrawls are disabled, ragequit remains enabled     Users can withdraw their stake through rageQuit() but forego their pending reward     Should only be used when downtime required for an upgrade - Shutdown:     Aludel is permanently disabled     All functions are disabled with the exception of ragequit     Users can withdraw their stake through rageQuit()     Power controller can withdraw from the reward pool     Should only be used if Proxy Owner role is compromized",
    "version": 1
  },
  "storageLayout": {
    "storage": [
      {
        "astId": 7,
        "contract": "src/contracts/aludel/Aludel.sol:Aludel",
        "label": "_owner",
        "offset": 0,
        "slot": "0",
        "type": "t_address"
      },
      {
        "astId": 111,
        "contract": "src/contracts/aludel/Aludel.sol:Aludel",
        "label": "_initialized",
        "offset": 20,
        "slot": "0",
        "type": "t_uint8"
      },
      {
        "astId": 114,
        "contract": "src/contracts/aludel/Aludel.sol:Aludel",
        "label": "_initializing",
        "offset": 21,
        "slot": "0",
        "type": "t_bool"
      },
      {
        "astId": 17004,
        "contract": "src/contracts/aludel/Aludel.sol:Aludel",
        "label": "_powerSwitch",
        "offset": 0,
        "slot": "1",
        "type": "t_address"
      },
      {
        "astId": 14485,
        "contract": "src/contracts/aludel/Aludel.sol:Aludel",
        "label": "_aludel",
        "offset": 0,
        "slot": "2",
        "type": "t_struct(AludelData)16392_storage"
      },
      {
        "astId": 14490,
        "contract": "src/contracts/aludel/Aludel.sol:Aludel",
        "label": "_vaults",
        "offset": 0,
        "slot": "13",
        "type": "t_mapping(t_address,t_struct(VaultData)16406_storage)"
      },
      {
        "astId": 14493,
        "contract": "src/contracts/aludel/Aludel.sol:Aludel",
        "label": "_bonusTokenSet",
        "offset": 0,
        "slot": "14",
        "type": "t_struct(AddressSet)2003_storage"
      },
      {
        "astId": 14496,
        "contract": "src/contracts/aludel/Aludel.sol:Aludel",
        "label": "_vaultFactorySet",
        "offset": 0,
        "slot": "16",
        "type": "t_struct(AddressSet)2003_storage"
      },
      {
        "astId": 14498,
        "contract": "src/contracts/aludel/Aludel.sol:Aludel",
        "label": "_feeRecipient",
        "offset": 0,
        "slot": "18",
        "type": "t_address"
      },
      {
        "astId": 14500,
        "contract": "src/contracts/aludel/Aludel.sol:Aludel",
        "label": "_feeBps",
        "offset": 20,
        "slot": "18",
        "type": "t_uint16"
      }
    ],
    "types": {
      "t_address": {
        "encoding": "inplace",
        "label": "address",
        "numberOfBytes": "20"
      },
      "t_array(t_bytes32)dyn_storage": {
        "base": "t_bytes32",
        "encoding": "dynamic_array",
        "label": "bytes32[]",
        "numberOfBytes": "32"
      },
      "t_array(t_struct(RewardSchedule)16399_storage)dyn_storage": {
        "base": "t_struct(RewardSchedule)16399_storage",
        "encoding": "dynamic_array",
        "label": "struct IAludel.RewardSchedule[]",
        "numberOfBytes": "32"
      },
      "t_array(t_struct(StakeData)16411_storage)dyn_storage": {
        "base": "t_struct(StakeData)16411_storage",
        "encoding": "dynamic_array",
        "label": "struct IAludel.StakeData[]",
        "numberOfBytes": "32"
      },
      "t_bool": {
        "encoding": "inplace",
        "label": "bool",
        "numberOfBytes": "1"
      },
      "t_bytes32": {
        "encoding": "inplace",
        "label": "bytes32",
        "numberOfBytes": "32"
      },
      "t_mapping(t_address,t_struct(VaultData)16406_storage)": {
        "encoding": "mapping",
        "key": "t_address",
        "label": "mapping(address => struct IAludel.VaultData)",
        "numberOfBytes": "32",
        "value": "t_struct(VaultData)16406_storage"
      },
      "t_mapping(t_bytes32,t_uint256)": {
        "encoding": "mapping",
        "key": "t_bytes32",
        "label": "mapping(bytes32 => uint256)",
        "numberOfBytes": "32",
        "value": "t_uint256"
      },
      "t_struct(AddressSet)2003_storage": {
        "encoding": "inplace",
        "label": "struct EnumerableSet.AddressSet",
        "members": [
          {
            "astId": 2002,
            "contract": "src/contracts/aludel/Aludel.sol:Aludel",
            "label": "_inner",
            "offset": 0,
            "slot": "0",
            "type": "t_struct(Set)1702_storage"
          }
        ],
        "numberOfBytes": "64"
      },
      "t_struct(AludelData)16392_storage": {
        "encoding": "inplace",
        "label": "struct IAludel.AludelData",
        "members": [
          {
            "astId": 16372,
            "contract": "src/contracts/aludel/Aludel.sol:Aludel",
            "label": "stakingToken",
            "offset": 0,
            "slot": "0",
            "type": "t_address"
          },
          {
            "astId": 16374,
            "contract": "src/contracts/aludel/Aludel.sol:Aludel",
            "label": "rewardToken",
            "offset": 0,
            "slot": "1",
            "type": "t_address"
          },
          {
            "astId": 16376,
            "contract": "src/contracts/aludel/Aludel.sol:Aludel",
            "label": "rewardPool",
            "offset": 0,
            "slot": "2",
            "type": "t_address"
          },
          {
            "astId": 16379,
            "contract": "src/contracts/aludel/Aludel.sol:Aludel",
            "label": "rewardScaling",
            "offset": 0,
            "slot": "3",
            "type": "t_struct(RewardScaling)16418_storage"
          },
          {
            "astId": 16381,
            "contract": "src/contracts/aludel/Aludel.sol:Aludel",
            "label": "rewardSharesOutstanding",
            "offset": 0,
            "slot": "6",
            "type": "t_uint256"
          },
          {
            "astId": 16383,
            "contract": "src/contracts/aludel/Aludel.sol:Aludel",
            "label": "totalStake",
            "offset": 0,
            "slot": "7",
            "type": "t_uint256"
          },
          {
            "astId": 16385,
            "contract": "src/contracts/aludel/Aludel.sol:Aludel",
            "label": "totalStakeUnits",
            "offset": 0,
            "slot": "8",
            "type": "t_uint256"
          },
          {
            "astId": 16387,
            "contract": "src/contracts/aludel/Aludel.sol:Aludel",
            "label": "lastUpdate",
            "offset": 0,
            "slot": "9",
            "type": "t_uint256"
          },
          {
            "astId": 16391,
            "contract": "src/contracts/aludel/Aludel.sol:Aludel",
            "label": "rewardSchedules",
            "offset": 0,
            "slot": "10",
            "type": "t_array(t_struct(RewardSchedule)16399_storage)dyn_storage"
          }
        ],
        "numberOfBytes": "352"
      },
      "t_struct(RewardScaling)16418_storage": {
        "encoding": "inplace",
        "label": "struct IAludel.RewardScaling",
        "members": [
          {
            "astId": 16413,
            "contract": "src/contracts/aludel/Aludel.sol:Aludel",
            "label": "floor",
            "offset": 0,
            "slot": "0",
            "type": "t_uint256"
          },
          {
            "astId": 16415,
            "contract": "src/contracts/aludel/Aludel.sol:Aludel",
            "label": "ceiling",
            "offset": 0,
            "slot": "1",
            "type": "t_uint256"
          },
          {
            "astId": 16417,
            "contract": "src/contracts/aludel/Aludel.sol:Aludel",
            "label": "time",
            "offset": 0,
            "slot": "2",
            "type": "t_uint256"
          }
        ],
        "numberOfBytes": "96"
      },
      "t_struct(RewardSchedule)16399_storage": {
        "encoding": "inplace",
        "label": "struct IAludel.RewardSchedule",
        "members": [
          {
            "astId": 16394,
            "contract": "src/contracts/aludel/Aludel.sol:Aludel",
            "label": "duration",
            "offset": 0,
            "slot": "0",
            "type": "t_uint256"
          },
          {
            "astId": 16396,
            "contract": "src/contracts/aludel/Aludel.sol:Aludel",
            "label": "start",
            "offset": 0,
            "slot": "1",
            "type": "t_uint256"
          },
          {
            "astId": 16398,
            "contract": "src/contracts/aludel/Aludel.sol:Aludel",
            "label": "shares",
            "offset": 0,
            "slot": "2",
            "type": "t_uint256"
          }
        ],
        "numberOfBytes": "96"
      },
      "t_struct(Set)1702_storage": {
        "encoding": "inplace",
        "label": "struct EnumerableSet.Set",
        "members": [
          {
            "astId": 1697,
            "contract": "src/contracts/aludel/Aludel.sol:Aludel",
            "label": "_values",
            "offset": 0,
            "slot": "0",
            "type": "t_array(t_bytes32)dyn_storage"
          },
          {
            "astId": 1701,
            "contract": "src/contracts/aludel/Aludel.sol:Aludel",
            "label": "_indexes",
            "offset": 0,
            "slot": "1",
            "type": "t_mapping(t_bytes32,t_uint256)"
          }
        ],
        "numberOfBytes": "64"
      },
      "t_struct(StakeData)16411_storage": {
        "encoding": "inplace",
        "label": "struct IAludel.StakeData",
        "members": [
          {
            "astId": 16408,
            "contract": "src/contracts/aludel/Aludel.sol:Aludel",
            "label": "amount",
            "offset": 0,
            "slot": "0",
            "type": "t_uint256"
          },
          {
            "astId": 16410,
            "contract": "src/contracts/aludel/Aludel.sol:Aludel",
            "label": "timestamp",
            "offset": 0,
            "slot": "1",
            "type": "t_uint256"
          }
        ],
        "numberOfBytes": "64"
      },
      "t_struct(VaultData)16406_storage": {
        "encoding": "inplace",
        "label": "struct IAludel.VaultData",
        "members": [
          {
            "astId": 16401,
            "contract": "src/contracts/aludel/Aludel.sol:Aludel",
            "label": "totalStake",
            "offset": 0,
            "slot": "0",
            "type": "t_uint256"
          },
          {
            "astId": 16405,
            "contract": "src/contracts/aludel/Aludel.sol:Aludel",
            "label": "stakes",
            "offset": 0,
            "slot": "1",
            "type": "t_array(t_struct(StakeData)16411_storage)dyn_storage"
          }
        ],
        "numberOfBytes": "64"
      },
      "t_uint16": {
        "encoding": "inplace",
        "label": "uint16",
        "numberOfBytes": "2"
      },
      "t_uint256": {
        "encoding": "inplace",
        "label": "uint256",
        "numberOfBytes": "32"
      },
      "t_uint8": {
        "encoding": "inplace",
        "label": "uint8",
        "numberOfBytes": "1"
      }
    }
  }
}