{
  "address": "0x1A4F1802f56C0E0d69F172a96877835659c6a05D",
  "abi": [
    {
      "anonymous": false,
      "inputs": [
        {
          "indexed": false,
          "internalType": "address",
          "name": "instance",
          "type": "address"
        }
      ],
      "name": "InstanceAdded",
      "type": "event"
    },
    {
      "anonymous": false,
      "inputs": [
        {
          "indexed": false,
          "internalType": "address",
          "name": "instance",
          "type": "address"
        }
      ],
      "name": "InstanceRemoved",
      "type": "event"
    },
    {
      "inputs": [
        {
          "internalType": "bytes",
          "name": "args",
          "type": "bytes"
        }
      ],
      "name": "create",
      "outputs": [
        {
          "internalType": "address",
          "name": "",
          "type": "address"
        }
      ],
      "stateMutability": "nonpayable",
      "type": "function"
    },
    {
      "inputs": [
        {
          "internalType": "bytes",
          "name": "",
          "type": "bytes"
        },
        {
          "internalType": "bytes32",
          "name": "",
          "type": "bytes32"
        }
      ],
      "name": "create2",
      "outputs": [
        {
          "internalType": "address",
          "name": "",
          "type": "address"
        }
      ],
      "stateMutability": "pure",
      "type": "function"
    },
    {
      "inputs": [
        {
          "internalType": "uint256",
          "name": "index",
          "type": "uint256"
        }
      ],
      "name": "instanceAt",
      "outputs": [
        {
          "internalType": "address",
          "name": "instance",
          "type": "address"
        }
      ],
      "stateMutability": "view",
      "type": "function"
    },
    {
      "inputs": [],
      "name": "instanceCount",
      "outputs": [
        {
          "internalType": "uint256",
          "name": "count",
          "type": "uint256"
        }
      ],
      "stateMutability": "view",
      "type": "function"
    },
    {
      "inputs": [
        {
          "internalType": "address",
          "name": "instance",
          "type": "address"
        }
      ],
      "name": "isInstance",
      "outputs": [
        {
          "internalType": "bool",
          "name": "validity",
          "type": "bool"
        }
      ],
      "stateMutability": "view",
      "type": "function"
    }
  ],
  "transactionHash": "0x6ad1912fbc6c489e1707c3540343e1c0759cc95c4d5aaa3c1099b38900dfd65d",
  "args": [],
  "numDeployments": 1,
  "solcInputHash": "88e0d896de96a01028c74f4e22f8120f",
  "bytecode": "0x608060405234801561001057600080fd5b50611ff8806100206000396000f3fe60806040523480156200001157600080fd5b50600436106200005e5760003560e01c806311d8293e14620000635780636b44e6be14620000995780638c0b8db214620000cf578063cf5ba53f1462000105578063ec56c716146200013b575b600080fd5b6200008160048036038101906200007b9190620006b2565b6200015d565b60405162000090919062000765565b60405180910390f35b620000b76004803603810190620000b191906200058f565b6200017c565b604051620000c6919062000782565b60405180910390f35b620000ed6004803603810190620000e7919062000648565b6200019b565b604051620000fc919062000765565b60405180910390f35b6200012360048036038101906200011d9190620005f3565b620001da565b60405162000132919062000765565b60405180910390f35b62000145620002b2565b604051620001549190620007e3565b60405180910390f35b600062000175826000620002c590919063ffffffff16565b9050919050565b600062000194826000620002e190919063ffffffff16565b9050919050565b60006040517f08c379a0000000000000000000000000000000000000000000000000000000008152600401620001d1906200079f565b60405180910390fd5b6000808383810190620001ee9190620005c1565b90506000816040516200020190620004c6565b6200020d919062000765565b604051809103906000f0801580156200022a573d6000803e3d6000fd5b509050620002388162000313565b8073ffffffffffffffffffffffffffffffffffffffff1663f2fde38b336040518263ffffffff1660e01b815260040162000273919062000765565b600060405180830381600087803b1580156200028e57600080fd5b505af1158015620002a3573d6000803e3d6000fd5b50505050809250505092915050565b6000620002c06000620003a7565b905090565b6000620002d68360000183620003be565b60001c905092915050565b60006200030b836000018373ffffffffffffffffffffffffffffffffffffffff1660001b620003ec565b905092915050565b620003298160006200040f90919063ffffffff16565b6200036b576040517f08c379a00000000000000000000000000000000000000000000000000000000081526004016200036290620007c1565b60405180910390fd5b7fee3a98e49d5a27452a99d57c90a7f73d4b2e44de88c6ded02e69c4ed964edd5a816040516200039c919062000765565b60405180910390a150565b6000620003b78260000162000441565b9050919050565b6000826000018281548110620003d957620003d862000879565b5b9060005260206000200154905092915050565b600080836001016000848152602001908152602001600020541415905092915050565b600062000439836000018373ffffffffffffffffffffffffffffffffffffffff1660001b62000452565b905092915050565b600081600001805490509050919050565b6000620004608383620003ec565b620004bb578260000182908060018154018082558091505060019003906000526020600020016000909190919091505582600001805490508360010160008481526020019081526020016000208190555060019050620004c0565b600090505b92915050565b6115fb80620009c883390190565b600081359050620004e5816200095f565b92915050565b600081359050620004fc8162000979565b92915050565b600081359050620005138162000993565b92915050565b60008083601f840112620005325762000531620008ad565b5b8235905067ffffffffffffffff811115620005525762000551620008a8565b5b602083019150836001820283011115620005715762000570620008b2565b5b9250929050565b6000813590506200058981620009ad565b92915050565b600060208284031215620005a857620005a7620008bc565b5b6000620005b884828501620004d4565b91505092915050565b600060208284031215620005da57620005d9620008bc565b5b6000620005ea84828501620004eb565b91505092915050565b600080602083850312156200060d576200060c620008bc565b5b600083013567ffffffffffffffff8111156200062e576200062d620008b7565b5b6200063c8582860162000519565b92509250509250929050565b600080600060408486031215620006645762000663620008bc565b5b600084013567ffffffffffffffff811115620006855762000684620008b7565b5b620006938682870162000519565b93509350506020620006a88682870162000502565b9150509250925092565b600060208284031215620006cb57620006ca620008bc565b5b6000620006db8482850162000578565b91505092915050565b620006ef8162000811565b82525050565b620007008162000839565b82525050565b60006200071560228362000800565b91506200072282620008c1565b604082019050919050565b60006200073c60248362000800565b9150620007498262000910565b604082019050919050565b6200075f816200086f565b82525050565b60006020820190506200077c6000830184620006e4565b92915050565b6000602082019050620007996000830184620006f5565b92915050565b60006020820190508181036000830152620007ba8162000706565b9050919050565b60006020820190508181036000830152620007dc816200072d565b9050919050565b6000602082019050620007fa600083018462000754565b92915050565b600082825260208201905092915050565b60006200081e826200084f565b9050919050565b600062000832826200084f565b9050919050565b60008115159050919050565b6000819050919050565b600073ffffffffffffffffffffffffffffffffffffffff82169050919050565b6000819050919050565b7f4e487b7100000000000000000000000000000000000000000000000000000000600052603260045260246000fd5b600080fd5b600080fd5b600080fd5b600080fd5b600080fd5b7f526577617264506f6f6c466163746f72793a20756e757365642066756e63746960008201527f6f6e000000000000000000000000000000000000000000000000000000000000602082015250565b7f496e7374616e636552656769737472793a20616c72656164792072656769737460008201527f6572656400000000000000000000000000000000000000000000000000000000602082015250565b6200096a8162000811565b81146200097657600080fd5b50565b620009848162000825565b81146200099057600080fd5b50565b6200099e8162000845565b8114620009aa57600080fd5b50565b620009b8816200086f565b8114620009c457600080fd5b5056fe60806040523480156200001157600080fd5b50604051620015fb380380620015fb83398181016040528101906200003791906200019c565b620000576200004b6200007460201b60201c565b6200007c60201b60201c565b6200006d816200014260201b6200088e1760201c565b5062000221565b600033905090565b6000600160009054906101000a900473ffffffffffffffffffffffffffffffffffffffff16905081600160006101000a81548173ffffffffffffffffffffffffffffffffffffffff021916908373ffffffffffffffffffffffffffffffffffffffff1602179055508173ffffffffffffffffffffffffffffffffffffffff168173ffffffffffffffffffffffffffffffffffffffff167f8be0079c531659141344cd1fd0a4f28419497f9722a3daafe3b4186f6b6457e060405160405180910390a35050565b806000806101000a81548173ffffffffffffffffffffffffffffffffffffffff021916908373ffffffffffffffffffffffffffffffffffffffff16021790555050565b600081519050620001968162000207565b92915050565b600060208284031215620001b557620001b462000202565b5b6000620001c58482850162000185565b91505092915050565b6000620001db82620001e2565b9050919050565b600073ffffffffffffffffffffffffffffffffffffffff82169050919050565b600080fd5b6200021281620001ce565b81146200021e57600080fd5b50565b6113ca80620002316000396000f3fe608060405234801561001057600080fd5b506004361061009e5760003560e01c80638da5cb5b116100665780638da5cb5b146101255780638f975a6414610143578063b27704fa1461015f578063bf86d6901461017b578063f2fde38b146101995761009e565b8063438cae7e146100a3578063664ab18e146100c1578063715018a6146100df578063766f13bc146100e95780638531a63614610107575b600080fd5b6100ab6101b5565b6040516100b89190610f3b565b60405180910390f35b6100c961025b565b6040516100d69190610f3b565b60405180910390f35b6100e7610301565b005b6100f1610389565b6040516100fe9190610ef7565b60405180910390f35b61010f61042f565b60405161011c9190610ef7565b60405180910390f35b61012d610458565b60405161013a9190610ef7565b60405180910390f35b61015d60048036038101906101589190610c80565b610482565b005b61017960048036038101906101749190610cd3565b610516565b005b6101836106f0565b6040516101909190610f3b565b60405180910390f35b6101b360048036038101906101ae9190610c26565b610796565b005b60008060009054906101000a900473ffffffffffffffffffffffffffffffffffffffff1673ffffffffffffffffffffffffffffffffffffffff1663438cae7e6040518163ffffffff1660e01b815260040160206040518083038186803b15801561021e57600080fd5b505afa158015610232573d6000803e3d6000fd5b505050506040513d601f19601f820116820180604052508101906102569190610d33565b905090565b60008060009054906101000a900473ffffffffffffffffffffffffffffffffffffffff1673ffffffffffffffffffffffffffffffffffffffff1663664ab18e6040518163ffffffff1660e01b815260040160206040518083038186803b1580156102c457600080fd5b505afa1580156102d8573d6000803e3d6000fd5b505050506040513d601f19601f820116820180604052508101906102fc9190610d33565b905090565b6103096108d1565b73ffffffffffffffffffffffffffffffffffffffff16610327610458565b73ffffffffffffffffffffffffffffffffffffffff161461037d576040517f08c379a000000000000000000000000000000000000000000000000000000000815260040161037490610fb6565b60405180910390fd5b61038760006108d9565b565b60008060009054906101000a900473ffffffffffffffffffffffffffffffffffffffff1673ffffffffffffffffffffffffffffffffffffffff1663766f13bc6040518163ffffffff1660e01b815260040160206040518083038186803b1580156103f257600080fd5b505afa158015610406573d6000803e3d6000fd5b505050506040513d601f19601f8201168201806040525081019061042a9190610c53565b905090565b60008060009054906101000a900473ffffffffffffffffffffffffffffffffffffffff16905090565b6000600160009054906101000a900473ffffffffffffffffffffffffffffffffffffffff16905090565b61048a6108d1565b73ffffffffffffffffffffffffffffffffffffffff166104a8610458565b73ffffffffffffffffffffffffffffffffffffffff16146104fe576040517f08c379a00000000000000000000000000000000000000000000000000000000081526004016104f590610fb6565b60405180910390fd5b61050661099f565b6105118383836109e8565b505050565b61051e610b1e565b610526610389565b73ffffffffffffffffffffffffffffffffffffffff163373ffffffffffffffffffffffffffffffffffffffff1614610593576040517f08c379a000000000000000000000000000000000000000000000000000000000815260040161058a90610f96565b60405180910390fd5b600073ffffffffffffffffffffffffffffffffffffffff168173ffffffffffffffffffffffffffffffffffffffff161415610603576040517f08c379a00000000000000000000000000000000000000000000000000000000081526004016105fa90610ff6565b60405180910390fd5b60005b838390508110156106ea57600084848381811061062657610625611150565b5b905060200201602081019061063b9190610c26565b905060008173ffffffffffffffffffffffffffffffffffffffff166370a08231306040518263ffffffff1660e01b81526004016106789190610ef7565b60206040518083038186803b15801561069057600080fd5b505afa1580156106a4573d6000803e3d6000fd5b505050506040513d601f19601f820116820180604052508101906106c89190610d60565b90506106d58285836109e8565b505080806106e2906110d8565b915050610606565b50505050565b60008060009054906101000a900473ffffffffffffffffffffffffffffffffffffffff1673ffffffffffffffffffffffffffffffffffffffff1663bf86d6906040518163ffffffff1660e01b815260040160206040518083038186803b15801561075957600080fd5b505afa15801561076d573d6000803e3d6000fd5b505050506040513d601f19601f820116820180604052508101906107919190610d33565b905090565b61079e6108d1565b73ffffffffffffffffffffffffffffffffffffffff166107bc610458565b73ffffffffffffffffffffffffffffffffffffffff1614610812576040517f08c379a000000000000000000000000000000000000000000000000000000000815260040161080990610fb6565b60405180910390fd5b600073ffffffffffffffffffffffffffffffffffffffff168173ffffffffffffffffffffffffffffffffffffffff161415610882576040517f08c379a000000000000000000000000000000000000000000000000000000000815260040161087990610f76565b60405180910390fd5b61088b816108d9565b50565b806000806101000a81548173ffffffffffffffffffffffffffffffffffffffff021916908373ffffffffffffffffffffffffffffffffffffffff16021790555050565b600033905090565b6000600160009054906101000a900473ffffffffffffffffffffffffffffffffffffffff16905081600160006101000a81548173ffffffffffffffffffffffffffffffffffffffff021916908373ffffffffffffffffffffffffffffffffffffffff1602179055508173ffffffffffffffffffffffffffffffffffffffff168173ffffffffffffffffffffffffffffffffffffffff167f8be0079c531659141344cd1fd0a4f28419497f9722a3daafe3b4186f6b6457e060405160405180910390a35050565b6109a761025b565b6109e6576040517f08c379a00000000000000000000000000000000000000000000000000000000081526004016109dd90610fd6565b60405180910390fd5b565b6000808473ffffffffffffffffffffffffffffffffffffffff1663a9059cbb8585604051602401610a1a929190610f12565b6040516020818303038152906040529060e01b6020820180517bffffffffffffffffffffffffffffffffffffffffffffffffffffffff8381831617835250505050604051610a689190610ee0565b6000604051808303816000865af19150503d8060008114610aa5576040519150601f19603f3d011682016040523d82523d6000602084013e610aaa565b606091505b5091509150818015610ad85750600081511480610ad7575080806020019051810190610ad69190610d33565b5b5b610b17576040517f08c379a0000000000000000000000000000000000000000000000000000000008152600401610b0e90611016565b60405180910390fd5b5050505050565b610b266106f0565b610b65576040517f08c379a0000000000000000000000000000000000000000000000000000000008152600401610b5c90610f56565b60405180910390fd5b565b600081359050610b768161134f565b92915050565b600081519050610b8b8161134f565b92915050565b60008083601f840112610ba757610ba6611184565b5b8235905067ffffffffffffffff811115610bc457610bc361117f565b5b602083019150836020820283011115610be057610bdf611189565b5b9250929050565b600081519050610bf681611366565b92915050565b600081359050610c0b8161137d565b92915050565b600081519050610c208161137d565b92915050565b600060208284031215610c3c57610c3b611193565b5b6000610c4a84828501610b67565b91505092915050565b600060208284031215610c6957610c68611193565b5b6000610c7784828501610b7c565b91505092915050565b600080600060608486031215610c9957610c98611193565b5b6000610ca786828701610b67565b9350506020610cb886828701610b67565b9250506040610cc986828701610bfc565b9150509250925092565b600080600060408486031215610cec57610ceb611193565b5b600084013567ffffffffffffffff811115610d0a57610d0961118e565b5b610d1686828701610b91565b93509350506020610d2986828701610b67565b9150509250925092565b600060208284031215610d4957610d48611193565b5b6000610d5784828501610be7565b91505092915050565b600060208284031215610d7657610d75611193565b5b6000610d8484828501610c11565b91505092915050565b610d968161105d565b82525050565b610da58161106f565b82525050565b6000610db682611036565b610dc08185611041565b9350610dd08185602086016110a5565b80840191505092915050565b6000610de960188361104c565b9150610df482611198565b602082019050919050565b6000610e0c60268361104c565b9150610e17826111c1565b604082019050919050565b6000610e2f60378361104c565b9150610e3a82611210565b604082019050919050565b6000610e5260208361104c565b9150610e5d8261125f565b602082019050919050565b6000610e7560168361104c565b9150610e8082611288565b602082019050919050565b6000610e9860218361104c565b9150610ea3826112b1565b604082019050919050565b6000610ebb602d8361104c565b9150610ec682611300565b604082019050919050565b610eda8161109b565b82525050565b6000610eec8284610dab565b915081905092915050565b6000602082019050610f0c6000830184610d8d565b92915050565b6000604082019050610f276000830185610d8d565b610f346020830184610ed1565b9392505050565b6000602082019050610f506000830184610d9c565b92915050565b60006020820190508181036000830152610f6f81610ddc565b9050919050565b60006020820190508181036000830152610f8f81610dff565b9050919050565b60006020820190508181036000830152610faf81610e22565b9050919050565b60006020820190508181036000830152610fcf81610e45565b9050919050565b60006020820190508181036000830152610fef81610e68565b9050919050565b6000602082019050818103600083015261100f81610e8b565b9050919050565b6000602082019050818103600083015261102f81610eae565b9050919050565b600081519050919050565b600081905092915050565b600082825260208201905092915050565b60006110688261107b565b9050919050565b60008115159050919050565b600073ffffffffffffffffffffffffffffffffffffffff82169050919050565b6000819050919050565b60005b838110156110c35780820151818401526020810190506110a8565b838111156110d2576000848401525b50505050565b60006110e38261109b565b91507fffffffffffffffffffffffffffffffffffffffffffffffffffffffffffffffff82141561111657611115611121565b5b600182019050919050565b7f4e487b7100000000000000000000000000000000000000000000000000000000600052601160045260246000fd5b7f4e487b7100000000000000000000000000000000000000000000000000000000600052603260045260246000fd5b600080fd5b600080fd5b600080fd5b600080fd5b600080fd5b7f506f77657265643a206973206e6f742073687574646f776e0000000000000000600082015250565b7f4f776e61626c653a206e6577206f776e657220697320746865207a65726f206160008201527f6464726573730000000000000000000000000000000000000000000000000000602082015250565b7f526577617264506f6f6c3a206f6e6c7920636f6e74726f6c6c65722063616e2060008201527f77697468647261772061667465722073687574646f776e000000000000000000602082015250565b7f4f776e61626c653a2063616c6c6572206973206e6f7420746865206f776e6572600082015250565b7f506f77657265643a206973206e6f74206f6e6c696e6500000000000000000000600082015250565b7f526577617264506f6f6c3a20726563697069656e74206e6f7420646566696e6560008201527f6400000000000000000000000000000000000000000000000000000000000000602082015250565b7f5472616e7366657248656c7065723a3a736166655472616e736665723a20747260008201527f616e73666572206661696c656400000000000000000000000000000000000000602082015250565b6113588161105d565b811461136357600080fd5b50565b61136f8161106f565b811461137a57600080fd5b50565b6113868161109b565b811461139157600080fd5b5056fea2646970667358221220470ff9a7da6f37e655143ac13e6b938a7a3b7f74b8ef6921c9957c8976f243e464736f6c63430008060033a26469706673582212206c65a271c5e46d98dc96bf603c03fc6f83ae3c94f4586155df05d6d7544b3d6164736f6c63430008060033",
  "devdoc": {
    "kind": "dev",
    "methods": {},
    "title": "Reward Pool Factory",
    "version": 1
  },
  "userdoc": {
    "kind": "user",
    "methods": {},
    "version": 1
  },
  "storageLayout": {
    "storage": [
      {
        "astId": 8374,
        "contract": "alchemist/contracts/aludel/RewardPoolFactory.sol:RewardPoolFactory",
        "label": "_instanceSet",
        "offset": 0,
        "slot": "0",
        "type": "t_struct(AddressSet)3387_storage"
      }
    ],
    "types": {
      "t_array(t_bytes32)dyn_storage": {
        "base": "t_bytes32",
        "encoding": "dynamic_array",
        "label": "bytes32[]",
        "numberOfBytes": "32"
      },
      "t_bytes32": {
        "encoding": "inplace",
        "label": "bytes32",
        "numberOfBytes": "32"
      },
      "t_mapping(t_bytes32,t_uint256)": {
        "encoding": "mapping",
        "key": "t_bytes32",
        "label": "mapping(bytes32 => uint256)",
        "numberOfBytes": "32",
        "value": "t_uint256"
      },
      "t_struct(AddressSet)3387_storage": {
        "encoding": "inplace",
        "label": "struct EnumerableSet.AddressSet",
        "members": [
          {
            "astId": 3386,
            "contract": "alchemist/contracts/aludel/RewardPoolFactory.sol:RewardPoolFactory",
            "label": "_inner",
            "offset": 0,
            "slot": "0",
            "type": "t_struct(Set)3086_storage"
          }
        ],
        "numberOfBytes": "64"
      },
      "t_struct(Set)3086_storage": {
        "encoding": "inplace",
        "label": "struct EnumerableSet.Set",
        "members": [
          {
            "astId": 3081,
            "contract": "alchemist/contracts/aludel/RewardPoolFactory.sol:RewardPoolFactory",
            "label": "_values",
            "offset": 0,
            "slot": "0",
            "type": "t_array(t_bytes32)dyn_storage"
          },
          {
            "astId": 3085,
            "contract": "alchemist/contracts/aludel/RewardPoolFactory.sol:RewardPoolFactory",
            "label": "_indexes",
            "offset": 0,
            "slot": "1",
            "type": "t_mapping(t_bytes32,t_uint256)"
          }
        ],
        "numberOfBytes": "64"
      },
      "t_uint256": {
        "encoding": "inplace",
        "label": "uint256",
        "numberOfBytes": "32"
      }
    }
  }
}