{
  "address": "0xb63E52F39CCeca01db3e37d733e44Fe7e8aD70cd",
  "abi": [
    {
      "inputs": [],
      "name": "FloorAboveCeiling",
      "type": "error"
    },
    {
      "inputs": [
        {
          "internalType": "address",
          "name": "addr",
          "type": "address"
        }
      ],
      "name": "InvalidAddress",
      "type": "error"
    },
    {
      "inputs": [],
      "name": "InvalidAmountArray",
      "type": "error"
    },
    {
      "inputs": [],
      "name": "InvalidDuration",
      "type": "error"
    },
    {
      "inputs": [],
      "name": "InvalidVault",
      "type": "error"
    },
    {
      "inputs": [],
      "name": "MaxBonusTokensReached",
      "type": "error"
    },
    {
      "inputs": [],
      "name": "MaxStakesReached",
      "type": "error"
    },
    {
      "inputs": [],
      "name": "NoAmountStaked",
      "type": "error"
    },
    {
      "inputs": [],
      "name": "NoAmountUnstaked",
      "type": "error"
    },
    {
      "inputs": [],
      "name": "NoStakes",
      "type": "error"
    },
    {
      "inputs": [],
      "name": "Powered_IsShutdown",
      "type": "error"
    },
    {
      "inputs": [],
      "name": "Powered_NotOffline",
      "type": "error"
    },
    {
      "inputs": [],
      "name": "Powered_NotOnline",
      "type": "error"
    },
    {
      "inputs": [],
      "name": "Powered_NotShutdown",
      "type": "error"
    },
    {
      "inputs": [],
      "name": "Powered_NotStarted",
      "type": "error"
    },
    {
      "inputs": [],
      "name": "ScalingTimeIsZero",
      "type": "error"
    },
    {
      "inputs": [],
      "name": "VaultAlreadyRegistered",
      "type": "error"
    },
    {
      "inputs": [],
      "name": "VaultFactoryNotRegistered",
      "type": "error"
    },
    {
      "anonymous": false,
      "inputs": [
        {
          "indexed": false,
          "internalType": "address",
          "name": "rewardPool",
          "type": "address"
        },
        {
          "indexed": false,
          "internalType": "address",
          "name": "powerSwitch",
          "type": "address"
        }
      ],
      "name": "AludelCreated",
      "type": "event"
    },
    {
      "anonymous": false,
      "inputs": [
        {
          "indexed": false,
          "internalType": "uint256",
          "name": "amount",
          "type": "uint256"
        },
        {
          "indexed": false,
          "internalType": "uint256",
          "name": "duration",
          "type": "uint256"
        }
      ],
      "name": "AludelFunded",
      "type": "event"
    },
    {
      "anonymous": false,
      "inputs": [
        {
          "indexed": false,
          "internalType": "address",
          "name": "token",
          "type": "address"
        }
      ],
      "name": "BonusTokenRegistered",
      "type": "event"
    },
    {
      "anonymous": false,
      "inputs": [
        {
          "indexed": false,
          "internalType": "uint8",
          "name": "version",
          "type": "uint8"
        }
      ],
      "name": "Initialized",
      "type": "event"
    },
    {
      "anonymous": false,
      "inputs": [
        {
          "indexed": true,
          "internalType": "address",
          "name": "previousOwner",
          "type": "address"
        },
        {
          "indexed": true,
          "internalType": "address",
          "name": "newOwner",
          "type": "address"
        }
      ],
      "name": "OwnershipTransferred",
      "type": "event"
    },
    {
      "anonymous": false,
      "inputs": [
        {
          "indexed": false,
          "internalType": "address",
          "name": "vault",
          "type": "address"
        },
        {
          "indexed": false,
          "internalType": "address",
          "name": "token",
          "type": "address"
        },
        {
          "indexed": false,
          "internalType": "uint256",
          "name": "amount",
          "type": "uint256"
        }
      ],
      "name": "RewardClaimed",
      "type": "event"
    },
    {
      "anonymous": false,
      "inputs": [
        {
          "indexed": false,
          "internalType": "address",
          "name": "vault",
          "type": "address"
        },
        {
          "indexed": false,
          "internalType": "uint256",
          "name": "amount",
          "type": "uint256"
        }
      ],
      "name": "Staked",
      "type": "event"
    },
    {
      "anonymous": false,
      "inputs": [
        {
          "indexed": false,
          "internalType": "address",
          "name": "vault",
          "type": "address"
        },
        {
          "indexed": false,
          "internalType": "uint256",
          "name": "amount",
          "type": "uint256"
        }
      ],
      "name": "Unstaked",
      "type": "event"
    },
    {
      "anonymous": false,
      "inputs": [
        {
          "indexed": false,
          "internalType": "address",
          "name": "factory",
          "type": "address"
        }
      ],
      "name": "VaultFactoryRegistered",
      "type": "event"
    },
    {
      "anonymous": false,
      "inputs": [
        {
          "indexed": false,
          "internalType": "address",
          "name": "factory",
          "type": "address"
        }
      ],
      "name": "VaultFactoryRemoved",
      "type": "event"
    },
    {
      "inputs": [],
      "name": "BASE_SHARES_PER_WEI",
      "outputs": [
        {
          "internalType": "uint256",
          "name": "",
          "type": "uint256"
        }
      ],
      "stateMutability": "view",
      "type": "function"
    },
    {
      "inputs": [],
      "name": "MAX_REWARD_TOKENS",
      "outputs": [
        {
          "internalType": "uint256",
          "name": "",
          "type": "uint256"
        }
      ],
      "stateMutability": "view",
      "type": "function"
    },
    {
      "inputs": [],
      "name": "MAX_STAKES_PER_VAULT",
      "outputs": [
        {
          "internalType": "uint256",
          "name": "",
          "type": "uint256"
        }
      ],
      "stateMutability": "view",
      "type": "function"
    },
    {
      "inputs": [
        {
          "internalType": "address",
          "name": "vault",
          "type": "address"
        },
        {
          "internalType": "uint256",
          "name": "reward",
          "type": "uint256"
        },
        {
          "internalType": "uint256",
          "name": "remainingRewards",
          "type": "uint256"
        }
      ],
      "name": "_claim",
      "outputs": [],
      "stateMutability": "nonpayable",
      "type": "function"
    },
    {
      "inputs": [
        {
          "internalType": "uint256",
          "name": "unlockedRewards",
          "type": "uint256"
        },
        {
          "internalType": "uint256",
          "name": "stakeAmount",
          "type": "uint256"
        },
        {
          "internalType": "uint256",
          "name": "stakeDuration",
          "type": "uint256"
        },
        {
          "internalType": "uint256",
          "name": "totalStakeUnits",
          "type": "uint256"
        },
        {
          "components": [
            {
              "internalType": "uint256",
              "name": "floor",
              "type": "uint256"
            },
            {
              "internalType": "uint256",
              "name": "ceiling",
              "type": "uint256"
            },
            {
              "internalType": "uint256",
              "name": "time",
              "type": "uint256"
            }
          ],
          "internalType": "struct IAludelV3.RewardScaling",
          "name": "rewardScaling",
          "type": "tuple"
        }
      ],
      "name": "calculateReward",
      "outputs": [
        {
          "internalType": "uint256",
          "name": "reward",
          "type": "uint256"
        }
      ],
      "stateMutability": "pure",
      "type": "function"
    },
    {
      "inputs": [
        {
          "internalType": "uint256",
          "name": "amount",
          "type": "uint256"
        },
        {
          "internalType": "uint256",
          "name": "start",
          "type": "uint256"
        },
        {
          "internalType": "uint256",
          "name": "end",
          "type": "uint256"
        }
      ],
      "name": "calculateStakeUnits",
      "outputs": [
        {
          "internalType": "uint256",
          "name": "stakeUnits",
          "type": "uint256"
        }
      ],
      "stateMutability": "pure",
      "type": "function"
    },
    {
      "inputs": [
        {
          "components": [
            {
              "internalType": "uint256",
              "name": "amount",
              "type": "uint256"
            },
            {
              "internalType": "uint256",
              "name": "timestamp",
              "type": "uint256"
            }
          ],
          "internalType": "struct IAludelV3.StakeData[]",
          "name": "stakes",
          "type": "tuple[]"
        },
        {
          "internalType": "uint256",
          "name": "timestamp",
          "type": "uint256"
        }
      ],
      "name": "calculateTotalStakeUnits",
      "outputs": [
        {
          "internalType": "uint256",
          "name": "totalStakeUnits",
          "type": "uint256"
        }
      ],
      "stateMutability": "pure",
      "type": "function"
    },
    {
      "inputs": [
        {
          "components": [
            {
              "internalType": "uint256",
              "name": "duration",
              "type": "uint256"
            },
            {
              "internalType": "uint256",
              "name": "start",
              "type": "uint256"
            },
            {
              "internalType": "uint256",
              "name": "shares",
              "type": "uint256"
            }
          ],
          "internalType": "struct IAludelV3.RewardSchedule[]",
          "name": "rewardSchedules",
          "type": "tuple[]"
        },
        {
          "internalType": "uint256",
          "name": "rewardBalance",
          "type": "uint256"
        },
        {
          "internalType": "uint256",
          "name": "sharesOutstanding",
          "type": "uint256"
        },
        {
          "internalType": "uint256",
          "name": "timestamp",
          "type": "uint256"
        }
      ],
      "name": "calculateUnlockedRewards",
      "outputs": [
        {
          "internalType": "uint256",
          "name": "unlockedRewards",
          "type": "uint256"
        }
      ],
      "stateMutability": "pure",
      "type": "function"
    },
    {
      "inputs": [
        {
          "internalType": "uint256",
          "name": "amount",
          "type": "uint256"
        },
        {
          "internalType": "uint256",
          "name": "duration",
          "type": "uint256"
        }
      ],
      "name": "fund",
      "outputs": [],
      "stateMutability": "nonpayable",
      "type": "function"
    },
    {
      "inputs": [],
      "name": "getAludelData",
      "outputs": [
        {
          "components": [
            {
              "internalType": "address",
              "name": "stakingToken",
              "type": "address"
            },
            {
              "internalType": "address",
              "name": "rewardToken",
              "type": "address"
            },
            {
              "internalType": "address",
              "name": "rewardPool",
              "type": "address"
            },
            {
              "components": [
                {
                  "internalType": "uint256",
                  "name": "floor",
                  "type": "uint256"
                },
                {
                  "internalType": "uint256",
                  "name": "ceiling",
                  "type": "uint256"
                },
                {
                  "internalType": "uint256",
                  "name": "time",
                  "type": "uint256"
                }
              ],
              "internalType": "struct IAludelV3.RewardScaling",
              "name": "rewardScaling",
              "type": "tuple"
            },
            {
              "internalType": "uint256",
              "name": "rewardSharesOutstanding",
              "type": "uint256"
            },
            {
              "internalType": "uint256",
              "name": "totalStake",
              "type": "uint256"
            },
            {
              "internalType": "uint256",
              "name": "totalStakeUnits",
              "type": "uint256"
            },
            {
              "internalType": "uint256",
              "name": "lastUpdate",
              "type": "uint256"
            },
            {
              "internalType": "contract IAludelHooks",
              "name": "hookContract",
              "type": "address"
            },
            {
              "components": [
                {
                  "internalType": "uint256",
                  "name": "duration",
                  "type": "uint256"
                },
                {
                  "internalType": "uint256",
                  "name": "start",
                  "type": "uint256"
                },
                {
                  "internalType": "uint256",
                  "name": "shares",
                  "type": "uint256"
                }
              ],
              "internalType": "struct IAludelV3.RewardSchedule[]",
              "name": "rewardSchedules",
              "type": "tuple[]"
            }
          ],
          "internalType": "struct IAludelV3.AludelData",
          "name": "aludel",
          "type": "tuple"
        }
      ],
      "stateMutability": "view",
      "type": "function"
    },
    {
      "inputs": [
        {
          "internalType": "uint256",
          "name": "index",
          "type": "uint256"
        }
      ],
      "name": "getBonusTokenAtIndex",
      "outputs": [
        {
          "internalType": "address",
          "name": "bonusToken",
          "type": "address"
        }
      ],
      "stateMutability": "view",
      "type": "function"
    },
    {
      "inputs": [],
      "name": "getBonusTokenSetLength",
      "outputs": [
        {
          "internalType": "uint256",
          "name": "length",
          "type": "uint256"
        }
      ],
      "stateMutability": "view",
      "type": "function"
    },
    {
      "inputs": [],
      "name": "getCurrentTotalStakeUnits",
      "outputs": [
        {
          "internalType": "uint256",
          "name": "totalStakeUnits",
          "type": "uint256"
        }
      ],
      "stateMutability": "view",
      "type": "function"
    },
    {
      "inputs": [
        {
          "internalType": "uint256",
          "name": "timestamp",
          "type": "uint256"
        }
      ],
      "name": "getFutureTotalStakeUnits",
      "outputs": [
        {
          "internalType": "uint256",
          "name": "totalStakeUnits",
          "type": "uint256"
        }
      ],
      "stateMutability": "view",
      "type": "function"
    },
    {
      "inputs": [],
      "name": "getPowerController",
      "outputs": [
        {
          "internalType": "address",
          "name": "controller",
          "type": "address"
        }
      ],
      "stateMutability": "view",
      "type": "function"
    },
    {
      "inputs": [],
      "name": "getPowerSwitch",
      "outputs": [
        {
          "internalType": "address",
          "name": "powerSwitch",
          "type": "address"
        }
      ],
      "stateMutability": "view",
      "type": "function"
    },
    {
      "inputs": [
        {
          "internalType": "address",
          "name": "vault",
          "type": "address"
        }
      ],
      "name": "getVaultData",
      "outputs": [
        {
          "components": [
            {
              "internalType": "uint256",
              "name": "totalStake",
              "type": "uint256"
            },
            {
              "components": [
                {
                  "internalType": "uint256",
                  "name": "amount",
                  "type": "uint256"
                },
                {
                  "internalType": "uint256",
                  "name": "timestamp",
                  "type": "uint256"
                }
              ],
              "internalType": "struct IAludelV3.StakeData[]",
              "name": "stakes",
              "type": "tuple[]"
            }
          ],
          "internalType": "struct IAludelV3.VaultData",
          "name": "vaultData",
          "type": "tuple"
        }
      ],
      "stateMutability": "view",
      "type": "function"
    },
    {
      "inputs": [
        {
          "internalType": "uint256",
          "name": "index",
          "type": "uint256"
        }
      ],
      "name": "getVaultFactoryAtIndex",
      "outputs": [
        {
          "internalType": "address",
          "name": "factory",
          "type": "address"
        }
      ],
      "stateMutability": "view",
      "type": "function"
    },
    {
      "inputs": [],
      "name": "getVaultFactorySetLength",
      "outputs": [
        {
          "internalType": "uint256",
          "name": "length",
          "type": "uint256"
        }
      ],
      "stateMutability": "view",
      "type": "function"
    },
    {
      "inputs": [
        {
          "internalType": "uint64",
          "name": "startTime",
          "type": "uint64"
        },
        {
          "internalType": "address",
          "name": "ownerAddress",
          "type": "address"
        },
        {
          "internalType": "address",
          "name": "feeRecipient",
          "type": "address"
        },
        {
          "internalType": "uint16",
          "name": "feeBps",
          "type": "uint16"
        },
        {
          "internalType": "bytes",
          "name": "data",
          "type": "bytes"
        }
      ],
      "name": "initialize",
      "outputs": [],
      "stateMutability": "nonpayable",
      "type": "function"
    },
    {
      "inputs": [],
      "name": "initializeLock",
      "outputs": [],
      "stateMutability": "nonpayable",
      "type": "function"
    },
    {
      "inputs": [],
      "name": "isOffline",
      "outputs": [
        {
          "internalType": "bool",
          "name": "status",
          "type": "bool"
        }
      ],
      "stateMutability": "view",
      "type": "function"
    },
    {
      "inputs": [],
      "name": "isOnline",
      "outputs": [
        {
          "internalType": "bool",
          "name": "status",
          "type": "bool"
        }
      ],
      "stateMutability": "view",
      "type": "function"
    },
    {
      "inputs": [],
      "name": "isShutdown",
      "outputs": [
        {
          "internalType": "bool",
          "name": "status",
          "type": "bool"
        }
      ],
      "stateMutability": "view",
      "type": "function"
    },
    {
      "inputs": [],
      "name": "isStarted",
      "outputs": [
        {
          "internalType": "bool",
          "name": "status",
          "type": "bool"
        }
      ],
      "stateMutability": "view",
      "type": "function"
    },
    {
      "inputs": [
        {
          "internalType": "address",
          "name": "target",
          "type": "address"
        }
      ],
      "name": "isValidAddress",
      "outputs": [
        {
          "internalType": "bool",
          "name": "validity",
          "type": "bool"
        }
      ],
      "stateMutability": "view",
      "type": "function"
    },
    {
      "inputs": [
        {
          "internalType": "address",
          "name": "target",
          "type": "address"
        }
      ],
      "name": "isValidVault",
      "outputs": [
        {
          "internalType": "bool",
          "name": "validity",
          "type": "bool"
        }
      ],
      "stateMutability": "view",
      "type": "function"
    },
    {
      "inputs": [],
      "name": "owner",
      "outputs": [
        {
          "internalType": "address",
          "name": "",
          "type": "address"
        }
      ],
      "stateMutability": "view",
      "type": "function"
    },
    {
      "inputs": [],
      "name": "rageQuit",
      "outputs": [],
      "stateMutability": "nonpayable",
      "type": "function"
    },
    {
      "inputs": [
        {
          "internalType": "address",
          "name": "bonusToken",
          "type": "address"
        }
      ],
      "name": "registerBonusToken",
      "outputs": [],
      "stateMutability": "nonpayable",
      "type": "function"
    },
    {
      "inputs": [
        {
          "internalType": "address",
          "name": "factory",
          "type": "address"
        }
      ],
      "name": "registerVaultFactory",
      "outputs": [],
      "stateMutability": "nonpayable",
      "type": "function"
    },
    {
      "inputs": [
        {
          "internalType": "address",
          "name": "factory",
          "type": "address"
        }
      ],
      "name": "removeVaultFactory",
      "outputs": [],
      "stateMutability": "nonpayable",
      "type": "function"
    },
    {
      "inputs": [],
      "name": "renounceOwnership",
      "outputs": [],
      "stateMutability": "nonpayable",
      "type": "function"
    },
    {
      "inputs": [
        {
          "internalType": "address",
          "name": "token",
          "type": "address"
        },
        {
          "internalType": "address",
          "name": "recipient",
          "type": "address"
        },
        {
          "internalType": "uint256",
          "name": "amount",
          "type": "uint256"
        }
      ],
      "name": "rescueTokensFromRewardPool",
      "outputs": [],
      "stateMutability": "nonpayable",
      "type": "function"
    },
    {
      "inputs": [
        {
          "internalType": "address",
          "name": "vault",
          "type": "address"
        },
        {
          "internalType": "uint256",
          "name": "amount",
          "type": "uint256"
        },
        {
          "internalType": "bytes",
          "name": "permission",
          "type": "bytes"
        }
      ],
      "name": "stake",
      "outputs": [],
      "stateMutability": "nonpayable",
      "type": "function"
    },
    {
      "inputs": [
        {
          "internalType": "address",
          "name": "newOwner",
          "type": "address"
        }
      ],
      "name": "transferOwnership",
      "outputs": [],
      "stateMutability": "nonpayable",
      "type": "function"
    },
    {
      "inputs": [
        {
          "internalType": "address",
          "name": "vault",
          "type": "address"
        },
        {
          "internalType": "uint256[]",
          "name": "indices",
          "type": "uint256[]"
        },
        {
          "internalType": "uint256[]",
          "name": "amounts",
          "type": "uint256[]"
        },
        {
          "internalType": "bytes",
          "name": "permission",
          "type": "bytes"
        }
      ],
      "name": "unstakeAndClaim",
      "outputs": [],
      "stateMutability": "nonpayable",
      "type": "function"
    }
  ],
  "transactionHash": "0x5ab1da7b4ac77cb5325f72d5f532d1f49c8b6f6148b6bd402c8a5018544b4d49",
  "args": [],
  "numDeployments": 1,
  "solcInputHash": "8c6e9d94b858831aead399fbbcaddb3c",
  "bytecode": "0x6080806040523461005b5760008054336001600160a01b0319821681178355916001600160a01b03909116907f8be0079c531659141344cd1fd0a4f28419497f9722a3daafe3b4186f6b6457e09080a3612c5a90816100618239f35b600080fdfe6080604052600436101561001257600080fd5b6000803560e01c80623f07fa14611bc25780624414df14611ba657806301210a18146118405780630513247b146117b65780630b2c5c14146117985780632857edd4146116ea5780632ee0b2bc146116605780633e12170f1461144a57806342c026c71461142b578063438cae7e146113ac5780634dd878d91461138d578063544736e61461137257806356360f71146112b85780635d0cde971461129c5780636421945014611278578063643cd8781461125a578063664ab18e1461123f57806371406a3214611223578063715018a6146111c4578063766f13bc146111375780637df98acf146110c05780638382840c1461106c5780638531a636146110435780638539a69a146110165780638da5cb5b14610fef5780638e0ef63614610f3d57806399493c5114610f055780639a793b3c146109e5578063a65e2cfd14610763578063b0ccbf8c14610644578063b3173f9f14610599578063bf86d69014610574578063c25b6b011461054a578063c85dd02514610369578063e2bb9c0f1461034b578063f2fde38b146102b25763f9039437146101b257600080fd5b34610286576060366003190112610286576101cb611be6565b906101d4611bfc565b81546001600160a01b039391906101ee9085163314611d68565b6101f6612bc4565b6101ff81612a73565b8360035416938083169485146102995784845260106020526040842054610299578394506004541691823b15610294576040516323e5d69960e21b81526001600160a01b0391821660048201529116602482015260448035908201529082908290606490829084905af18015610289576102765750f35b61027f90611c84565b6102865780f35b80fd5b6040513d84823e3d90fd5b505050fd5b604051634726455360e11b815260048101869052602490fd5b5034610286576020366003190112610286576102cc611be6565b81546001600160a01b03906102e49082163314611d68565b8116156102f7576102f490611db3565b80f35b60405162461bcd60e51b815260206004820152602660248201527f4f776e61626c653a206e6577206f776e657220697320746865207a65726f206160448201526564647265737360d01b6064820152608490fd5b50346102865780600319360112610286576020600f54604051908152f35b50346102865780600319360112610286576101209060608260405161038d81611cb2565b8381528360208201528360408201526040516103a881611c97565b848152846020820152846040820152838201528360808201528360a08201528360c08201528360e0820152836101008201520152604051906103e982611cb2565b6002546001600160a01b039081168352600354811660208401526004541660408301526104146120f0565b6060830152600854608083015260095460a0830152600a5460c0830152600b5460e0830152600c546001600160a01b0316610100830152610453612114565b8284015260408051602080825284516001600160a01b0390811682840152818601518116838501528386015116606080840191909152850151805160808401529081015160a08301529091015160c0820152928392608081015160e085015260a081015161010085015260c08101518285015260e081015161014085015260018060a01b0361010082015116610160850152015190610180808401526101a08301825180915260206101c085019301915b818110610512575050500390f35b91935091602060608261053c60019488516040809180518452602081015160208501520151910152565b019401910191849392610504565b5034610286576060366003190112610286576102f4610567611be6565b60443590602435906127dc565b5034610286578060031936011261028657602061058f612af6565b6040519015158152f35b5034610286576080366003190112610286576004356001600160401b0381116106405736602382011215610640578060040135916105d683611cef565b906105e46040519283611cce565b8382526020928383019060246060809702820101923684116102865750602401905b8282106106285784610620606435604435602435886122db565b604051908152f35b8486916106353685611d06565b815201910190610606565b5080fd5b5034610286578060031936011261028657338152600e6020526040812060019081810190815415610751576106d96106df926106c7610682426121a8565b600a81905542600b55935460408051338152602081018390527f0f5bb82176feb1b5e747e28471aa92156a04d9f3ab9f45f28e2d704232b93f759190a16009546122bb565b6009556106d44291612204565b61226e565b906122bb565b600a55338252600e602052806040832060008155019081549183815582610704578380f35b6001600160ff1b038316830361073d5783526020832091811b8201915b82811061072c578380f35b600080825582820155600201610721565b634e487b7160e01b84526011600452602484fd5b604051632cdb939b60e21b8152600490fd5b50346102865760403660031901126102865760043560243560018060a01b03610790818554163314611d68565b610798612bc4565b81156109d3576107d5601354936107c46127106107bc61ffff8860a01c16846122c8565b0480926122bb565b948380600354169116903390612450565b60085480156109a0578160035416602083600454166024604051809481936370a0823160e01b835260048301525afa90811561099557869161095d575b506108296108309161082487856122c8565b61238b565b80926121d9565b6008556040519061084082611c97565b8382526020820142815260408301918252600d54600160401b811015610949576001810180600d558110156109355793604095937fd7b6990105719101dabeb77144f2a3385c8033acd3af97e9423a695e81ad1eb76109279489979460037fd1652c5efcfb913fe86636bfe9bb19ebb9dd32519e48bb69ffc880e5c2637e1d9b96600d8e52029351847fd7b6990105719101dabeb77144f2a3385c8033acd3af97e9423a695e81ad1eb50155517fd7b6990105719101dabeb77144f2a3385c8033acd3af97e9423a695e81ad1eb68401555191015580600354169060045416903390612450565b82519182526020820152a180f35b634e487b7160e01b88526032600452602488fd5b634e487b7160e01b88526041600452602488fd5b90506020813d821161098d575b8161097760209383611cce565b810103126109885751610829610812565b600080fd5b3d915061096a565b6040513d88823e3d90fd5b620f42408085029085820414851517156109bf576108309080926121d9565b634e487b7160e01b86526011600452602486fd5b604051637616640160e01b8152600490fd5b5034610286576080366003190112610286576109ff611be6565b6001600160401b0390602435828111610ea857610a20903690600401611d38565b90604435848111610f0157610a39903690600401611d38565b95909460643590811161064057610a54903690600401611c26565b9590610a5e612bc4565b610a66612c03565b6001600160a01b0386168352600e6020526040832091610a85426121a8565b600a5542600b55600354600480546040516370a0823160e01b81526001600160a01b039182169281019290925290969160209188916024918391165afa958615610ef6578596610ebe575b5090610afc610b0492610af49b9499979b428d60085490610aef612114565b6122db565b98369161278e565b92369161278e565b949783948497859886905b8551821015610dc7579089610b618796959493610b5a848f610b4e8d610b45610b549360019f86610b3f9161225a565b516122bb565b9d8e9101612737565b506121e6565b9461225a565b51906121d9565b9b8b610b6f8484519261225a565b5111610db5578b8251610b82858361225a565b5103610d70575060018901546000199890898101908111610d5c57610bad610bb89160018d01612737565b509160018c01612737565b919091610d4857808203610d34575b505060018101809111610d20579660018901548015610d0c5701610bee8160018b01612737565b610cf6576001816000809355015560018901555b600c546001600160a01b031680610c8b575b506020810151610c2490426122bb565b9d8e9151600a549283610c356120f0565b91610c4093856123ab565b9a8b610c4b916121d9565b9a610c55916122bb565b9d610c60838d61225a565b5190610c6b916122c8565b610c74916122bb565b600a55610c8090611f92565b909192939499610b0f565b803b15610cf257898091604460405180948193636291613960e11b835287516004840152602088015160248401525af18015610ce757908a91610ccf575b50610c14565b610cd890611c84565b610ce3578838610cc9565b8880fd5b6040513d8c823e3d90fd5b8980fd5b634e487b7160e01b600052600060045260246000fd5b634e487b7160e01b8b52603160045260248bfd5b634e487b7160e01b8a52601160045260248afd5b600181819254845501549101553880610bc7565b634e487b7160e01b8c5260048c905260248cfd5b634e487b7160e01b8c52601160045260248cfd5b610d8e610d8385610d97939b949b61225a565b519260018c01612737565b509182546122bb565b9055610dae610da6838d61225a565b5182516122bb565b8152610c02565b60405163083c16bb60e21b8152600490fd5b95919050879394508a8615610eac5782610de3888a95546122bb565b9055610df1876009546122bb565b6009556002546001600160a01b03908116919085163b15610ea85760405163abee080360e01b815292849284928392610e2f928c9060048601612753565b0381836001600160a01b0388165af1801561028957610e90575b5050604080516001600160a01b038316815260208101959095526102f4947f0f5bb82176feb1b5e747e28471aa92156a04d9f3ab9f45f28e2d704232b93f759190a16127dc565b610e9990611c84565b610ea4578486610e49565b8480fd5b8380fd5b6040516316d7d4d560e31b8152600490fd5b919095506020823d602011610eee575b81610edb60209383611cce565b8101031261098857905194610afc610ad0565b3d9150610ece565b6040513d87823e3d90fd5b8580fd5b5034610286576020366003190112610286576020610f24600435611f5b565b905460405160039290921b1c6001600160a01b03168152f35b503461028657602036600319011261028657610f57611be6565b81546001600160a01b039190610f709083163314611d68565b610f78612bc4565b610f8181612a73565b6032600f541015610fdd5716610f9681612614565b15610fc95760207fbca954c637e20d265d501f3c0c9d0df1440001376c36ac73bd296c1a628f528c91604051908152a180f35b634e487b7160e01b82526001600452602482fd5b6040516369fac31360e11b8152600490fd5b5034610286578060031936011261028657546040516001600160a01b039091168152602090f35b503461028657606036600319011261028657602061062060043561103e6024356044356122bb565b6122c8565b50346102865780600319360112610286576001546040516001600160a01b039091168152602090f35b50346102865760e036600319011261028657606036608319011261098857602061062060405161109b81611c97565b608435815260a4358382015260c43560408201526064356044356024356004356123ab565b50346102865780600319360112610286576110d9611e5d565b80611121575b6110e65780f35b805460ff60a81b19168155604051600181527f7f26b83ff96e1f2b6a682f133852f6798a09c465da95921460cefb384740249890602090a180f35b815460ff60a81b1916600160a81b1782556110df565b5034610286578060031936011261028657600154604051631d9bc4ef60e21b8152906001600160a01b03906020908390600490829085165afa9182156111b9576020939261118a575b5060405191168152f35b6111ab919250833d81116111b2575b6111a38183611cce565b810190611ea6565b9038611180565b503d611199565b6040513d85823e3d90fd5b5034610286578060031936011261028657600060018060a01b036111ec818454163314611d68565b81546001600160a01b031981168355167f8be0079c531659141344cd1fd0a4f28419497f9722a3daafe3b4186f6b6457e08280a380f35b50346102865780600319360112610286576020604051601e8152f35b5034610286578060031936011261028657602061058f612aa6565b50346102865780600319360112610286576020601154604051908152f35b503461028657602036600319011261028657602061058f611297611be6565b611fcf565b5034610286578060031936011261028657602060405160328152f35b50346102865760208060031936011261064057906112d4611be6565b6060836040516112e381611c53565b84815201526001600160a01b03168152600e8252604080822090519161130883611c53565b815483526113196001809301612204565b9284810193845260405193858552606085019151868601525194604080860152855180925280608086019601925b8281106113545785870386f35b83518051885282015182880152604090960195928101928401611347565b5034610286578060031936011261028657602061058f612b2e565b5034610286576020366003190112610286576020610f24600435611f0e565b50346102865780600319360112610286576001546040516321c6573f60e11b815290602090829060049082906001600160a01b03165afa90811561028957602092916113fe575b506040519015158152f35b61141e9150823d8111611424575b6114168183611cce565b810190611fb7565b386113f3565b503d61140c565b50346102865760203660031901126102865760206106206004356121a8565b503461028657606036600319011261028657611464611be6565b906024356044356001600160401b03811161165c57611487903690600401611c26565b90611490612bc4565b611498612c03565b6114a185611fcf565b1561164a578215611638576001600160a01b03858116808652600e60205260408620600181018054929392601e1115611626576114dd426121a8565b600a5542600b55604051906114f182611c53565b8782526020820190428252805490600160401b821015611612579061151b91600182018155612737565b9290926115fe5790600191518355519101556115388682546121d9565b9055611546856009546121d9565b60095560025416813b15610f015790848680949361157a6040519788968795869463c792f45d60e01b865260048601612753565b03925af180156111b9576115cd575b50604080516001600160a01b03949094168452602084019190915290917f9e71bc8eea02a63969f509818f2dafb9254532904319f9dbda79b67bd34a5f3d9190a180f35b916115f87f9e71bc8eea02a63969f509818f2dafb9254532904319f9dbda79b67bd34a5f3d93611c84565b91611589565b634e487b7160e01b8a5260048a905260248afd5b634e487b7160e01b8b52604160045260248bfd5b604051630c23778b60e11b8152600490fd5b604051637e6e0ea960e01b8152600490fd5b604051630681d31960e51b8152600490fd5b8280fd5b50346102865760203660031901126102865761167a611be6565b81546001600160a01b0391906116939083163314611d68565b61169b612be4565b166116a581612595565b156116d85760207f059b5054f04b000050b3cbdf0ad2d8bce0dfca886836a4742ab837cc948cd1af91604051908152a180f35b6040516324ec133760e11b8152600490fd5b5034610286576040366003190112610286576004356001600160401b03811161064057366023820112156106405780600401359061172782611cef565b906117356040519283611cce565b82825260209260248484019160061b83010191368311610f0157602401905b82821061176857846106206024358661226e565b604082360312610f015784604091825161178181611c53565b843581528285013583820152815201910190611754565b50346102865780600319360112610286576020604051620f42408152f35b5034610286576020366003190112610286576117d0611be6565b81546001600160a01b0391906117e99083163314611d68565b6117f1612be4565b166117fb81612661565b1561182e5760207f040b321f0ccd1b9d7890282c99da1d97cbf2de30c3af0782aba31fbd9528324391604051908152a180f35b604051631a8a3d2f60e01b8152600490fd5b50346102865760a0366003190112610286576004356001600160401b039081811680910361165c57611870611bfc565b6001600160a01b039290919060443584811690819003610f01576064359361ffff85168503611ba257608435838111611b9e576118b1903690600401611c26565b9590966118bc611e5d565b9687611b88575b880161010089820312610cf2576040519560c0870190811187821017611612576040526118ef89611c12565b86526020986118ff8a8201611c12565b968a810197885261191260408301611c12565b946040820195865261192660608401611c12565b92606083019384526080810135948686168603611b845760a0611950926080860197885201611d06565b9060a0830198828a526013549161ffff60a01b9060a01b169169ffffffffffffffffffff60b01b1617176013558b815191015110611b725760408751015115611b6057838c985116988460405197168c8801526040870152604086526119b586611c97565b8a604051809a818b816119d663cf5ba53f60e01b9c8d835260048301611ec5565b03925af18015611b5557848c92611a1e9b8b93611b36575b505116856040519216978884840152838352611a0983611c53565b8a604051809d81958294835260048301611ec5565b03925af1978815611b2b577f9848123ba141e26644059f3993427b10fe045ef81a9f876a081652b36fe85f0b98846040999381938e8c9694611b0c575b5050611a6633611db3565b816bffffffffffffffffffffffff60a01b988a8a6001541617600155511688600254161760025551168660035416176003551695868560045416176004555180516005558a8101516006550151600755511690600c541617600c55825191825285820152a1611ad3575080f35b815460ff60a81b19168255604051600181527f7f26b83ff96e1f2b6a682f133852f6798a09c465da95921460cefb38474024989190a180f35b611b23929450803d106111b2576111a38183611cce565b91388e611a5b565b6040513d89823e3d90fd5b611b4e919350843d86116111b2576111a38183611cce565b91386119ee565b6040513d8a823e3d90fd5b604051638c648c8560e01b8152600490fd5b6040516318084af360e01b8152600490fd5b8e80fd5b895460ff60a81b1916600160a81b178a556118c3565b8780fd5b8680fd5b50346102865780600319360112610286576020610620426121a8565b503461028657602036600319011261028657602061058f611be1611be6565b612073565b600435906001600160a01b038216820361098857565b602435906001600160a01b038216820361098857565b35906001600160a01b038216820361098857565b9181601f84011215610988578235916001600160401b038311610988576020838186019501011161098857565b604081019081106001600160401b03821117611c6e57604052565b634e487b7160e01b600052604160045260246000fd5b6001600160401b038111611c6e57604052565b606081019081106001600160401b03821117611c6e57604052565b61014081019081106001600160401b03821117611c6e57604052565b90601f801991011681019081106001600160401b03821117611c6e57604052565b6001600160401b038111611c6e5760051b60200190565b919082606091031261098857604051611d1e81611c97565b604080829480358452602081013560208501520135910152565b9181601f84011215610988578235916001600160401b038311610988576020808501948460051b01011161098857565b15611d6f57565b606460405162461bcd60e51b815260206004820152602060248201527f4f776e61626c653a2063616c6c6572206973206e6f7420746865206f776e65726044820152fd5b600080546001600160a01b039283166001600160a01b03198216811783559216907f8be0079c531659141344cd1fd0a4f28419497f9722a3daafe3b4186f6b6457e09080a3565b15611e0157565b60405162461bcd60e51b815260206004820152602e60248201527f496e697469616c697a61626c653a20636f6e747261637420697320616c72656160448201526d191e481a5b9a5d1a585b1a5e995960921b6064820152608490fd5b60005460ff8160a81c16600014611e7f5750611e7a303b15611dfa565b600090565b611e91600160ff8360a01c1610611dfa565b60ff60a01b1916600160a01b17600055600190565b9081602091031261098857516001600160a01b03811681036109885790565b6020808252825181830181905290939260005b828110611efa57505060409293506000838284010152601f8019910116010190565b818101860151848201604001528501611ed8565b600f54811015611f4557600f6000527f8d1108e10bcb7c27dddfc02ed9d693a074039d026cf4ea4240b40f7d581ac8020190600090565b634e487b7160e01b600052603260045260246000fd5b601154811015611f455760116000527f31ecc21a745e3968a04e9570e4425bc18fa8019c68028196b546d1669c200c680190600090565b6000198114611fa15760010190565b634e487b7160e01b600052601160045260246000fd5b90816020910312610988575180151581036109885790565b6011549060005b828110611fe557505050600090565b611fee81611f5b565b9054906040918251916335a2735f60e11b83528260248160018060a01b03808a166004830152602095869560031b1c165afa928315612069575060009261204c575b50506120445761203f90611f92565b611fd6565b505050600190565b6120629250803d10611424576114168183611cce565b3880612030565b513d6000823e3d90fd5b6001600160a01b039081163081141591826120e6575b826120d7575b826120c8575b826120b9575b50816120a5575090565b905060005260106020526040600020541590565b6004541681141591503861209b565b60035481168214159250612095565b6002548116821415925061208f565b8115159250612089565b604051906120fd82611c97565b600554825260065460208301526007546040830152565b600d549061212182611cef565b91604061213081519485611cce565b81845283602080910191600d6000527fd7b6990105719101dabeb77144f2a3385c8033acd3af97e9423a695e81ad1eb5906000935b85851061217457505050505050565b600384600192845161218581611c97565b865481528487015483820152600287015486820152815201930194019391612165565b600b548082146121d1576121ce9161103e6121c692600954926122bb565b600a546121d9565b90565b5050600a5490565b91908201809211611fa157565b906040516121f381611c53565b602060018294805484520154910152565b90815461221081611cef565b9261221e6040519485611cce565b818452600090815260208082208186015b84841061223d575050505050565b60028360019261224c856121e6565b81520192019301929061222f565b8051821015611f455760209160051b010190565b6000929190835b81518510156122b5576122a96122af916122a3612292888661225a565b5161103e60208251920151886122bb565b906121d9565b94611f92565b93612275565b93505050565b91908203918211611fa157565b81810292918115918404141715611fa157565b9392919284511561238157600091825b86518410156123685761232961232f91612305868a61225a565b5190600091602081019061231a82518b6122bb565b815111612335575b50506121d9565b93611f92565b926122eb565b6123609293508061235861235260406106d994015194518d6122bb565b846122c8565b90519061238b565b903880612322565b6121ce959296508194506106d9935090610824916122c8565b9350505050600090565b8115612395570490565b634e487b7160e01b600052601260045260246000fd5b939290826123b8916122c8565b60009482612437575b505050604082019182518210801590612429575b156123e05750505090565b916123586122a392612358856124236124186124016121ce9a99518a6122c8565b94612412602085019687519061238b565b996122c8565b9184519051906122bb565b906122c8565b5080516020820151146123d5565b61244793955090610824916122c8565b913880806123c1565b6040516323b872dd60e01b60208083019182526001600160a01b0394851660248401529490931660448201526064808201959095529384529192601f1992919061249b608482611cce565b600092839283809351925af1913d1561258c573d6001600160401b038111612578576124d18560405193601f8401160183611cce565b81528091843d92013e5b81612548575b50156124ea5750565b6084906040519062461bcd60e51b82526004820152603160248201527f5472616e7366657248656c7065723a3a7472616e7366657246726f6d3a207472604482015270185b9cd9995c919c9bdb4819985a5b1959607a1b6064820152fd5b80518015925083908315612560575b505050386124e1565b6125709350820181019101611fb7565b388281612557565b634e487b7160e01b83526041600452602483fd5b505060606124db565b60008181526012602052604081205461260f57601154600160401b8110156125fb5790826125e76125ce84600160409601601155611f5b565b819391549060031b600019811b9283911b169119161790565b905560115492815260126020522055600190565b634e487b7160e01b82526041600452602482fd5b905090565b60008181526010602052604081205461260f57600f54600160401b8110156125fb57908261264d6125ce84600160409601600f55611f0e565b9055600f5492815260106020522055600190565b6000818152601260205260408120549091908015612732576000199080820181811161271e57601154908382019182116109bf578082036126ea575b50505060115480156126d6578101906126b582611f5b565b909182549160031b1b19169055601155815260126020526040812055600190565b634e487b7160e01b84526031600452602484fd5b6127086126f96125ce93611f5b565b90549060031b1c928392611f5b565b905584526012602052604084205538808061269d565b634e487b7160e01b85526011600452602485fd5b505090565b8054821015611f455760005260206000209060011b0190600090565b9284926080959260018060a01b03168552602085015260606040850152816060850152848401376000828201840152601f01601f1916010190565b929161279982611cef565b916127a76040519384611cce565b829481845260208094019160051b810192831161098857905b8282106127cd5750505050565b813581529083019083016127c0565b91816127e757505050565b6127fb6008546106d98361082486846122c8565b600855600f9081546128e1575b50506004546003546001600160a01b0390811693918116803b15610988576040516323e5d69960e21b81526001600160a01b0395861660048201529483166024860152604485018490526000908590606490829084905af19081156128d5577f0aa4d283470c904c551d18bb894d37e17674920f3261a7f854be501e25f421b7946128c1926128c6575b5060035416926040519384938460409194939294606082019560018060a01b0380921683521660208201520152565b0390a1565b6128cf90611c84565b38612892565b6040513d6000823e3d90fd5b919360009391935b8454811015612a66576128fb81611f0e565b9060018060a01b03918291549060031b1c166004918254169160409081516370a0823160e01b815284828201526020908181602481885afa918215612a5b57918a918d93600092612a24575b505061295692610824916122c8565b93803b156109885782516323e5d69960e21b81526001600160a01b03808616938201938452891660208401526040830186905291600091839182908490829060600103925af18015612a1957612a059594927f0aa4d283470c904c551d18bb894d37e17674920f3261a7f854be501e25f421b794926129fd92612a0a575b50516001600160a01b03808a168252909216602083015260408201929092529081906060820190565b0390a1611f92565b6128e9565b612a1390611c84565b386129d4565b82513d6000823e3d90fd5b819450809293503d8311612a54575b612a3d8183611cce565b810103126102865750518a90899082610824612947565b503d612a33565b84513d6000823e3d90fd5b5093915091503880612808565b612a7c81612073565b15612a845750565b604051634726455360e11b81526001600160a01b039091166004820152602490fd5b60015460405163332558c760e11b815290602090829060049082906001600160a01b03165afa9081156128d557600091612ade575090565b6121ce915060203d8111611424576114168183611cce565b600154604051630bf86d6960e41b815290602090829060049082906001600160a01b03165afa9081156128d557600091612ade575090565b6001546040516302734eab60e51b815290602090829060049082906001600160a01b03165afa9081156128d557600091612b8a575b506004811015612b74576003141590565b634e487b7160e01b600052602160045260246000fd5b6020813d8211612bbc575b81612ba260209383611cce565b810103126106405751906004821015610286575038612b63565b3d9150612b95565b612bcc612aa6565b15612bd357565b604051623ff97760e91b8152600490fd5b612bec612af6565b612bf257565b6040516289a30f60e01b8152600490fd5b612c0b612b2e565b15612c1257565b604051631c775e9960e21b8152600490fdfea2646970667358221220912a80cd02e3a7ea73e559d2d1294b316070896b0223612f54139d8f17e35fa464736f6c63430008110033",
  "devdoc": {
    "kind": "dev",
    "methods": {
      "fund(uint256,uint256)": {
        "params": {
          "amount": "uint256 Amount of reward tokens to deposit",
          "duration": "uint256 Duration over which to linearly unlock rewards"
        }
      },
      "owner()": {
        "details": "Returns the address of the current owner."
      },
      "rageQuit()": {
        "details": "This function should never revert when correctly called by the vault.      A max number of stakes per vault is set with MAX_STAKES_PER_VAULT to      place an upper bound on the for loop in calculateTotalStakeUnits(). access control: only callable by the vault directly state machine:   - when vault exists on this Aludel   - when active stake from this vault   - any power state state scope:   - decrease _aludel.totalStake   - increase _aludel.lastUpdate   - modify _aludel.totalStakeUnits   - delete _vaults[vault] token transfer: none"
      },
      "registerBonusToken(address)": {
        "details": "use this function to enable distribution of any ERC20 held by the RewardPool contract access control: only admin state machine:   - can be called multiple times   - only online state scope:   - append to _bonusTokenSet token transfer: none",
        "params": {
          "bonusToken": "address The address of the bonus token"
        }
      },
      "registerVaultFactory(address)": {
        "details": "use this function to enable stakes to vaults coming from the specified      factory contract access control: only admin state machine:   - can be called multiple times   - not shutdown state scope:   - append to _vaultFactorySet token transfer: none",
        "params": {
          "factory": "address The address of the vault factory"
        }
      },
      "removeVaultFactory(address)": {
        "details": "use this function to disable new stakes to vaults coming from the specified      factory contract.      note: vaults with existing stakes from this factory are sill able to unstake access control: only admin state machine:   - can be called multiple times   - not shutdown state scope:   - remove from _vaultFactorySet token transfer: none",
        "params": {
          "factory": "address The address of the vault factory"
        }
      },
      "renounceOwnership()": {
        "details": "Leaves the contract without owner. It will not be possible to call `onlyOwner` functions anymore. Can only be called by the current owner. NOTE: Renouncing ownership will leave the contract without an owner, thereby removing any functionality that is only available to the owner."
      },
      "rescueTokensFromRewardPool(address,address,uint256)": {
        "details": "use this function to rescue tokens from RewardPool contract      without distributing to stakers or triggering emergency shutdown access control: only admin state machine:   - can be called multiple times   - only online state scope: none token transfer: transfer requested token from RewardPool to recipient",
        "params": {
          "amount": "uint256 The amount of tokens to rescue",
          "recipient": "address The address of the recipient",
          "token": "address The address of the token to rescue"
        }
      },
      "stake(address,uint256,bytes)": {
        "params": {
          "amount": "uint256 The amount of staking tokens to stake",
          "permission": "bytes The signed lock permission for the universal vault",
          "vault": "address The address of the vault to stake from"
        }
      },
      "transferOwnership(address)": {
        "details": "Transfers ownership of the contract to a new account (`newOwner`). Can only be called by the current owner."
      },
      "unstakeAndClaim(address,uint256[],uint256[],bytes)": {
        "details": "rewards can only be claimed when unstaking, thus reseting the reward multiplier access control: anyone with a valid permission state machine:   - when vault exists on this Aludel   - after stake from vault   - can be called multiple times while sufficient stake remains   - only online state scope:   - decrease _aludel.rewardSharesOutstanding   - decrease _aludel.totalStake   - increase _aludel.lastUpdate   - modify _aludel.totalStakeUnits   - modify _vaults[vault].stakes   - decrease _vaults[vault].totalStake token transfer:   - transfer reward tokens from reward pool to vault   - transfer bonus tokens from reward pool to vault",
        "params": {
          "amounts": "uint256 The amount of staking tokens to unstake",
          "indices": "uint256 The amount of staking tokens to unstake",
          "permission": "bytes The signed lock permission for the universal vault",
          "vault": "address The vault to unstake from"
        }
      }
    },
    "title": "Aludel",
    "version": 1
  },
  "userdoc": {
    "kind": "user",
    "methods": {
      "fund(uint256,uint256)": {
        "notice": "Add funds to the Aludel access control: only admin state machine:   - can be called multiple times   - only online state scope:   - increase _aludel.rewardSharesOutstanding   - append to _aludel.rewardSchedules token transfer: transfer staking tokens from msg.sender to reward pool"
      },
      "initialize(uint64,address,address,uint16,bytes)": {
        "notice": "Initizalize Aludel access control: only proxy constructor state machine: can only be called once state scope: set initialization variables token transfer: none"
      },
      "rageQuit()": {
        "notice": "Exit Aludel without claiming reward"
      },
      "registerBonusToken(address)": {
        "notice": "Register bonus token for distribution"
      },
      "registerVaultFactory(address)": {
        "notice": "Add vault factory to whitelist"
      },
      "removeVaultFactory(address)": {
        "notice": "Remove vault factory from whitelist"
      },
      "rescueTokensFromRewardPool(address,address,uint256)": {
        "notice": "Rescue tokens from RewardPool"
      },
      "stake(address,uint256,bytes)": {
        "notice": "Stake tokens access control: anyone with a valid permission state machine:   - can be called multiple times   - only online   - when vault exists on this Aludel state scope:   - append to _vaults[vault].stakes   - increase _vaults[vault].totalStake   - increase _aludel.totalStake   - increase _aludel.totalStakeUnits   - increase _aludel.lastUpdate token transfer: transfer staking tokens from msg.sender to vault"
      },
      "unstakeAndClaim(address,uint256[],uint256[],bytes)": {
        "notice": "Unstake staking tokens and claim reward"
      }
    },
    "notice": "Reward distribution contract with time multiplier Access Control - Power controller:     Can power off / shutdown the Aludel     Can withdraw rewards from reward pool once shutdown - Aludel admin:     Can add funds to the Aludel, register bonus tokens, and whitelist new vault factories     Is a subset of proxy owner permissions - User:     Can deposit / withdraw / ragequit Aludel State Machine - Online:     Aludel is operating normally, all functions are enabled - Offline:     Aludel is temporarely disabled for maintenance     User deposits and withdrawls are disabled, ragequit remains enabled     Users can withdraw their stake through rageQuit() but forego their pending reward     Should only be used when downtime required for an upgrade - Shutdown:     Aludel is permanently disabled     All functions are disabled with the exception of ragequit     Users can withdraw their stake through rageQuit()     Power controller can withdraw from the reward pool     Should only be used if Proxy Owner role is compromized",
    "version": 1
  },
  "storageLayout": {
    "storage": [
      {
        "astId": 7,
        "contract": "src/contracts/aludel/AludelV3.sol:AludelV3",
        "label": "_owner",
        "offset": 0,
        "slot": "0",
        "type": "t_address"
      },
      {
        "astId": 111,
        "contract": "src/contracts/aludel/AludelV3.sol:AludelV3",
        "label": "_initialized",
        "offset": 20,
        "slot": "0",
        "type": "t_uint8"
      },
      {
        "astId": 114,
        "contract": "src/contracts/aludel/AludelV3.sol:AludelV3",
        "label": "_initializing",
        "offset": 21,
        "slot": "0",
        "type": "t_bool"
      },
      {
        "astId": 17116,
        "contract": "src/contracts/aludel/AludelV3.sol:AludelV3",
        "label": "_powerSwitch",
        "offset": 0,
        "slot": "1",
        "type": "t_address"
      },
      {
        "astId": 14489,
        "contract": "src/contracts/aludel/AludelV3.sol:AludelV3",
        "label": "_aludel",
        "offset": 0,
        "slot": "2",
        "type": "t_struct(AludelData)16462_storage"
      },
      {
        "astId": 14494,
        "contract": "src/contracts/aludel/AludelV3.sol:AludelV3",
        "label": "_vaults",
        "offset": 0,
        "slot": "14",
        "type": "t_mapping(t_address,t_struct(VaultData)16476_storage)"
      },
      {
        "astId": 14497,
        "contract": "src/contracts/aludel/AludelV3.sol:AludelV3",
        "label": "_bonusTokenSet",
        "offset": 0,
        "slot": "15",
        "type": "t_struct(AddressSet)2003_storage"
      },
      {
        "astId": 14500,
        "contract": "src/contracts/aludel/AludelV3.sol:AludelV3",
        "label": "_vaultFactorySet",
        "offset": 0,
        "slot": "17",
        "type": "t_struct(AddressSet)2003_storage"
      },
      {
        "astId": 14502,
        "contract": "src/contracts/aludel/AludelV3.sol:AludelV3",
        "label": "_feeRecipient",
        "offset": 0,
        "slot": "19",
        "type": "t_address"
      },
      {
        "astId": 14504,
        "contract": "src/contracts/aludel/AludelV3.sol:AludelV3",
        "label": "_feeBps",
        "offset": 20,
        "slot": "19",
        "type": "t_uint16"
      }
    ],
    "types": {
      "t_address": {
        "encoding": "inplace",
        "label": "address",
        "numberOfBytes": "20"
      },
      "t_array(t_bytes32)dyn_storage": {
        "base": "t_bytes32",
        "encoding": "dynamic_array",
        "label": "bytes32[]",
        "numberOfBytes": "32"
      },
      "t_array(t_struct(RewardSchedule)16469_storage)dyn_storage": {
        "base": "t_struct(RewardSchedule)16469_storage",
        "encoding": "dynamic_array",
        "label": "struct IAludelV3.RewardSchedule[]",
        "numberOfBytes": "32"
      },
      "t_array(t_struct(StakeData)16481_storage)dyn_storage": {
        "base": "t_struct(StakeData)16481_storage",
        "encoding": "dynamic_array",
        "label": "struct IAludelV3.StakeData[]",
        "numberOfBytes": "32"
      },
      "t_bool": {
        "encoding": "inplace",
        "label": "bool",
        "numberOfBytes": "1"
      },
      "t_bytes32": {
        "encoding": "inplace",
        "label": "bytes32",
        "numberOfBytes": "32"
      },
      "t_contract(IAludelHooks)16382": {
        "encoding": "inplace",
        "label": "contract IAludelHooks",
        "numberOfBytes": "20"
      },
      "t_mapping(t_address,t_struct(VaultData)16476_storage)": {
        "encoding": "mapping",
        "key": "t_address",
        "label": "mapping(address => struct IAludelV3.VaultData)",
        "numberOfBytes": "32",
        "value": "t_struct(VaultData)16476_storage"
      },
      "t_mapping(t_bytes32,t_uint256)": {
        "encoding": "mapping",
        "key": "t_bytes32",
        "label": "mapping(bytes32 => uint256)",
        "numberOfBytes": "32",
        "value": "t_uint256"
      },
      "t_struct(AddressSet)2003_storage": {
        "encoding": "inplace",
        "label": "struct EnumerableSet.AddressSet",
        "members": [
          {
            "astId": 2002,
            "contract": "src/contracts/aludel/AludelV3.sol:AludelV3",
            "label": "_inner",
            "offset": 0,
            "slot": "0",
            "type": "t_struct(Set)1702_storage"
          }
        ],
        "numberOfBytes": "64"
      },
      "t_struct(AludelData)16462_storage": {
        "encoding": "inplace",
        "label": "struct IAludelV3.AludelData",
        "members": [
          {
            "astId": 16439,
            "contract": "src/contracts/aludel/AludelV3.sol:AludelV3",
            "label": "stakingToken",
            "offset": 0,
            "slot": "0",
            "type": "t_address"
          },
          {
            "astId": 16441,
            "contract": "src/contracts/aludel/AludelV3.sol:AludelV3",
            "label": "rewardToken",
            "offset": 0,
            "slot": "1",
            "type": "t_address"
          },
          {
            "astId": 16443,
            "contract": "src/contracts/aludel/AludelV3.sol:AludelV3",
            "label": "rewardPool",
            "offset": 0,
            "slot": "2",
            "type": "t_address"
          },
          {
            "astId": 16446,
            "contract": "src/contracts/aludel/AludelV3.sol:AludelV3",
            "label": "rewardScaling",
            "offset": 0,
            "slot": "3",
            "type": "t_struct(RewardScaling)16488_storage"
          },
          {
            "astId": 16448,
            "contract": "src/contracts/aludel/AludelV3.sol:AludelV3",
            "label": "rewardSharesOutstanding",
            "offset": 0,
            "slot": "6",
            "type": "t_uint256"
          },
          {
            "astId": 16450,
            "contract": "src/contracts/aludel/AludelV3.sol:AludelV3",
            "label": "totalStake",
            "offset": 0,
            "slot": "7",
            "type": "t_uint256"
          },
          {
            "astId": 16452,
            "contract": "src/contracts/aludel/AludelV3.sol:AludelV3",
            "label": "totalStakeUnits",
            "offset": 0,
            "slot": "8",
            "type": "t_uint256"
          },
          {
            "astId": 16454,
            "contract": "src/contracts/aludel/AludelV3.sol:AludelV3",
            "label": "lastUpdate",
            "offset": 0,
            "slot": "9",
            "type": "t_uint256"
          },
          {
            "astId": 16457,
            "contract": "src/contracts/aludel/AludelV3.sol:AludelV3",
            "label": "hookContract",
            "offset": 0,
            "slot": "10",
            "type": "t_contract(IAludelHooks)16382"
          },
          {
            "astId": 16461,
            "contract": "src/contracts/aludel/AludelV3.sol:AludelV3",
            "label": "rewardSchedules",
            "offset": 0,
            "slot": "11",
            "type": "t_array(t_struct(RewardSchedule)16469_storage)dyn_storage"
          }
        ],
        "numberOfBytes": "384"
      },
      "t_struct(RewardScaling)16488_storage": {
        "encoding": "inplace",
        "label": "struct IAludelV3.RewardScaling",
        "members": [
          {
            "astId": 16483,
            "contract": "src/contracts/aludel/AludelV3.sol:AludelV3",
            "label": "floor",
            "offset": 0,
            "slot": "0",
            "type": "t_uint256"
          },
          {
            "astId": 16485,
            "contract": "src/contracts/aludel/AludelV3.sol:AludelV3",
            "label": "ceiling",
            "offset": 0,
            "slot": "1",
            "type": "t_uint256"
          },
          {
            "astId": 16487,
            "contract": "src/contracts/aludel/AludelV3.sol:AludelV3",
            "label": "time",
            "offset": 0,
            "slot": "2",
            "type": "t_uint256"
          }
        ],
        "numberOfBytes": "96"
      },
      "t_struct(RewardSchedule)16469_storage": {
        "encoding": "inplace",
        "label": "struct IAludelV3.RewardSchedule",
        "members": [
          {
            "astId": 16464,
            "contract": "src/contracts/aludel/AludelV3.sol:AludelV3",
            "label": "duration",
            "offset": 0,
            "slot": "0",
            "type": "t_uint256"
          },
          {
            "astId": 16466,
            "contract": "src/contracts/aludel/AludelV3.sol:AludelV3",
            "label": "start",
            "offset": 0,
            "slot": "1",
            "type": "t_uint256"
          },
          {
            "astId": 16468,
            "contract": "src/contracts/aludel/AludelV3.sol:AludelV3",
            "label": "shares",
            "offset": 0,
            "slot": "2",
            "type": "t_uint256"
          }
        ],
        "numberOfBytes": "96"
      },
      "t_struct(Set)1702_storage": {
        "encoding": "inplace",
        "label": "struct EnumerableSet.Set",
        "members": [
          {
            "astId": 1697,
            "contract": "src/contracts/aludel/AludelV3.sol:AludelV3",
            "label": "_values",
            "offset": 0,
            "slot": "0",
            "type": "t_array(t_bytes32)dyn_storage"
          },
          {
            "astId": 1701,
            "contract": "src/contracts/aludel/AludelV3.sol:AludelV3",
            "label": "_indexes",
            "offset": 0,
            "slot": "1",
            "type": "t_mapping(t_bytes32,t_uint256)"
          }
        ],
        "numberOfBytes": "64"
      },
      "t_struct(StakeData)16481_storage": {
        "encoding": "inplace",
        "label": "struct IAludelV3.StakeData",
        "members": [
          {
            "astId": 16478,
            "contract": "src/contracts/aludel/AludelV3.sol:AludelV3",
            "label": "amount",
            "offset": 0,
            "slot": "0",
            "type": "t_uint256"
          },
          {
            "astId": 16480,
            "contract": "src/contracts/aludel/AludelV3.sol:AludelV3",
            "label": "timestamp",
            "offset": 0,
            "slot": "1",
            "type": "t_uint256"
          }
        ],
        "numberOfBytes": "64"
      },
      "t_struct(VaultData)16476_storage": {
        "encoding": "inplace",
        "label": "struct IAludelV3.VaultData",
        "members": [
          {
            "astId": 16471,
            "contract": "src/contracts/aludel/AludelV3.sol:AludelV3",
            "label": "totalStake",
            "offset": 0,
            "slot": "0",
            "type": "t_uint256"
          },
          {
            "astId": 16475,
            "contract": "src/contracts/aludel/AludelV3.sol:AludelV3",
            "label": "stakes",
            "offset": 0,
            "slot": "1",
            "type": "t_array(t_struct(StakeData)16481_storage)dyn_storage"
          }
        ],
        "numberOfBytes": "64"
      },
      "t_uint16": {
        "encoding": "inplace",
        "label": "uint16",
        "numberOfBytes": "2"
      },
      "t_uint256": {
        "encoding": "inplace",
        "label": "uint256",
        "numberOfBytes": "32"
      },
      "t_uint8": {
        "encoding": "inplace",
        "label": "uint8",
        "numberOfBytes": "1"
      }
    }
  }
}