{
  "address": "0x89921eE74165432F7f4e14075061148a09E8d4F6",
  "abi": [
    {
      "inputs": [
        {
          "internalType": "uint256",
          "name": "_lockPeriod",
          "type": "uint256"
        }
      ],
      "stateMutability": "nonpayable",
      "type": "constructor"
    },
    {
      "inputs": [],
      "name": "TimelockNotElapsed",
      "type": "error"
    },
    {
      "inputs": [],
      "name": "lockPeriod",
      "outputs": [
        {
          "internalType": "uint256",
          "name": "",
          "type": "uint256"
        }
      ],
      "stateMutability": "view",
      "type": "function"
    },
    {
      "inputs": [
        {
          "components": [
            {
              "internalType": "uint256",
              "name": "amount",
              "type": "uint256"
            },
            {
              "internalType": "uint256",
              "name": "timestamp",
              "type": "uint256"
            }
          ],
          "internalType": "struct IAludelV3.StakeData",
          "name": "stake",
          "type": "tuple"
        }
      ],
      "name": "unstakeAndClaimPost",
      "outputs": [],
      "stateMutability": "nonpayable",
      "type": "function"
    }
  ],
  "transactionHash": "0x40fe42d0688c6729b3b49e1018c20957db373978912d2e28113e582887b7c114",
  "args": [
    7776000
  ],
  "numDeployments": 1,
  "solcInputHash": "3ff5fea6dbaf82abf3cebd0f921fb9ca",
  "bytecode": "0x60a03461005f57601f6101cf38819003918201601f19168301916001600160401b038311848410176100645780849260209460405283398101031261005f5751608052604051610154908161007b82396080518181816075015260fb0152f35b600080fd5b634e487b7160e01b600052604160045260246000fdfe60806040818152600436101561001457600080fd5b600091823560e01c9081633fd8b02f146100e4575063c522c2721461003857600080fd5b346100e057806003193601126100e057805181810181811067ffffffffffffffff8211176100cc57906020918352600435815260243591829101527f000000000000000000000000000000000000000000000000000000000000000081018091116100b8574211156100a8575080f35b5163333bd2cb60e11b8152600490fd5b634e487b7160e01b83526011600452602483fd5b634e487b7160e01b84526041600452602484fd5b5080fd5b8390346100e057816003193601126100e0576020907f00000000000000000000000000000000000000000000000000000000000000008152f3fea2646970667358221220c3c497b9237bc8bc5f85aee329e5db15da1b28b5d6c4e7823cc23204de9bb2ee64736f6c63430008110033",
  "devdoc": {
    "kind": "dev",
    "methods": {},
    "version": 1
  },
  "userdoc": {
    "kind": "user",
    "methods": {},
    "version": 1
  },
  "storageLayout": {
    "storage": [],
    "types": null
  }
}